:1004000000008231132A08007E14823120007F0808
:100410002100A5008531F425823121002508200026
:10042000FF007E1009008231152A2100C201C3019C
:10043000C401C501C601C7012300D501D601D701FA
:10044000D801D901DA01DB01DC01DD01DE01DF01C8
:10045000AD30840092308500C030860001308700C6
:100460000030FF0015309231372282317E1020009B
:100470008B31B12B2000C70123004F082000DB0087
:1004800023004E082000DA005A0886005B08870027
:10049000413106300106031D4E2A4F2A312B5A08DE
:1004A00086005B08870080300106031D582A592A00
:1004B000312B5A0886005B0887004231403FBD005F
:1004C000413FBE003E08BF003F08D7005A088600E3
:1004D0005B08870042310108BD003D08D800570382
:1004E000031D732A742A902A8D30B0009030B10019
:1004F0008D308400903085000008BD00BE013D08AD
:10050000B2003E08B3005A0886005B0887004631F7
:10051000403FB400413FB50088311C208231F02DAE
:10052000023020005706031D962A972ACB2A580826
:1005300003199B2A9C2AA02A92312C228231F02D69
:1005400020005835D33E860001308700403FCA0066
:10055000413FCB004B08B1004A08B0004B08BE0039
:100560004A08BD0002303D0784003E0803183E0AD9
:100570008500003FB200013FB3005A0886005B08C7
:1005800087004631403FB400413FB50088311C2010
:100590008231F02DF02D033020005706031DD12AA3
:1005A000D22AFE2A5530BD003D08F000580894318B
:1005B000B524823171082000CD007008CC00CD1F19
:1005C000E22AE32AE72A92312C228231F02D200000
:1005D0005608B1005508B0004D08B3004C08B200F1
:1005E0005A0886005B0887004631403FB400413F0F
:1005F000B50088311C208231F02DF02D20005B08E1
:10060000F1005A08F0004930BD003D08F200913178
:10061000EF21823171082000CF007008CE00CF1F7B
:10062000122B132B172B92312C228231F02D20000C
:100630004908B0000030B1004F08B3004E08B200C6
:100640005A0886005B0887004631403FB400413FAE
:10065000B50088311C208231F02DF02DF02DF02DC9
:10066000F02D20005A0886005B08870041310530D4
:100670000106031D3C2B3D2B4F2B2300D801D80A2C
:1006800020005A0886005B08870042310108BD003F
:100690003D082300D7009131FD218231F02D20004B
:1006A0005A0886005B088700413109300106031DA6
:1006B0005A2B5B2B752B5A0886005B08870042314A
:1006C0000108BD003D08D00050088231032282316C
:1006D0008931642182319131FD218231200050081D
:1006E000BD003D082100C700F02D20005A088600FB
:1006F0005B088700413108300106031D802B812BE8
:10070000962BC730B0000030B1000130B20000308D
:10071000B3005A0886005B0887004631403FB400AA
:10072000413FB50088311C208231F02D20005A084D
:1007300086005B08870041310108031DA02BA12B17
:10074000422C5A0886005B08870001081F39003ACE
:10075000031DAB2BAC2BC92B9131E72182317108E2
:100760002000C1007008C0004030B0000030B1006F
:100770000230B2000030B3005A0886005B088700E0
:100780004631403FB400413FB50088311C208231E2
:10079000F02D20005A0886005B08870001081F39E9
:1007A000023A031DD42BD52B3C2C5A0886005B083B
:1007B0008700443101080F39BD003D08D1000230E7
:1007C00051020318E42BE52B372C0730BD003D0800
:1007D000F00051089231F0228231063EC03E860080
:1007E0000130870001082000BE003E08D2005A08F0
:1007F00086005B0887004431403FBD00413FBE009A
:10080000BD1B032C042C0D2C52080139BD00BE0168
:100810003D08C5003E08C600162C52080239BD002E
:10082000BE013D08C5003E08C600162C450846041A
:10083000031D1B2C1D2C01301E2C0030BD003D085B
:10084000C200C3014230B0000030B1000230B2003B
:100850000030B3005A0886005B0887004631403FED
:10086000B400413FB50088311C208231F02D923117
:100870002C228231F02DF02D92312C228231F02D5C
:10088000F02DF02D20005A0886005B0887004131CA
:100890000B300106031D4D2C4E2C712C5A0886007E
:1008A0005B08870042310108BD003D08F0005A088E
:1008B00086005B088700443101089131E4218231D0
:1008C0002000BE003E08C400C41F672C682C6C2C9E
:1008D00092312C228231F02D9131FD218231F02D87
:1008E000F02D20005A0886005B08870041310A304D
:1008F0000106031D7C2C7D2CA92C5A0886005B0860
:100900008700443101089131E12182312000BD008E
:100910003D08D300D31F8D2C8E2C922C92312C228B
:100920008231F02D53302000B0000030B100013092
:10093000B2000030B3005A0886005B0887004631D9
:10094000403FB400413FB50088311C208231F02D7A
:10095000F02D20005A0886005B0887004131010312
:100960000319B32CB42CBF2C5A0886005B088700EF
:10097000413103300106031DBE2CBF2CE62DC801FA
:10098000C80AC32CC32C5A0886005B0887000108DC
:100990001F39023A031DCD2CCE2CD82D5A088600C3
:1009A0005B088700423116000104031DD82CD92CA6
:1009B000D82D5A0886005B088700443101080F399A
:1009C000BD003D08D9005A0886005B088700443105
:1009D00001088039BD003D08D400023059020318D7
:1009E000F22CF32CD82D5A0886005B088700413181
:1009F00003300106031DFD2CFE2C0F2D5408031996
:100A0000022D032D082D59089331A1238231B92DD0
:100A1000200059089331C3238231B92DB92D20000C
:100A200054080319142D152D682D162D0730BD00FF
:100A30003D08F00059089231F0228231053EC03E57
:100A400086000130870001082000BE005935BF0034
:100A50000130BF35FF3E031D292D3F35053E203EA9
:100A6000860087013E0881005935BD000130BD3543
:100A7000FF3E031D372D3D35043E203E8600870195
:100A80008101422DF730BD000730BE003E08F00066
:100A900059089231F0228231063EC03E8600013074
:100AA000870020003D088105FD30BD000730BE00F5
:100AB0003E08F00059089231F0228231063EC03ED5
:100AC00086000130870020003D088105B92D682D82
:100AD0000730BD003D08F00059089231F022823104
:100AE000043EC03E86000130870001082000BE00A1
:100AF0005935BF000130BF35FF3E031D7B2D3F350B
:100B0000013E203E860087013E0881008830BD00FE
:100B10005935BE000130BE35FF3E031D8B2D3E35DD
:100B2000203E860087013D088100962D0730BD00DC
:100B30003D08F00059089231F0228231063EC03E55
:100B40008600013087000115FE302000BD0007300F
:100B5000BE003E08F00059089231F0228231063E74
:100B6000C03E86000130870020003D088105B92D78
:100B7000B92D20005A0886005B08870041310330F8
:100B800001060319C42DC62D0130C72D0030BD004C
:100B90003D08F0005A0886005B08870044310108D0
:100BA0008831012082312000C801D82DD82DD82DC0
:100BB0004808031DDC2DDD2DE12D9131FD21823111
:100BC000F02D92312C228231F02DF02DC701C70378
:100BD000F02DF02DF02DF02DF02DF02DF02DF02D2D
:100BE00020004708F32D08003D00101CF82DF92DBA
:100BF000022E8831002085319531A72585313D00B1
:100C00001010022E901E052E062E4C2E01302100B3
:100C1000A3000030A4002408803A2000EC008030BB
:100C20006C02031D162E023021002302031C192E14
:100C30001A2E1C2E4A2E4A2E98302000EC000E3020
:100C4000ED002100230820006C07EE00210024089D
:100C500020006D3DEF006E082100A00020006F080D
:100C60002100A10020088600210887000110013022
:100C7000A3070030A43D2408803A2000EC00803017
:100C80006C02031D462E023021002302031C492E54
:100C90004A2E1C2E3D009012901D4F2E502E282FB4
:100CA000921D532E542E282F0F0C2000EC00EC0C1C
:100CB0006C0C0F39003A031D5E2E5F2E912E3D0005
:100CC0000F19632E642E912E2000200C890C0F39F1
:100CD000EC006C082100A2000D302206031D712ECD
:100CE000722E762E9631152685318D2E09302100F3
:100CF0002206031D7C2E7D2E7F2E8D2E8D2E22030F
:100D0000031D832E842E882E87313A2785318D2E20
:100D100092312C2285318D2E8D2E923106228531F5
:100D2000262F3D000F0C2000EC00EC0C6C0C0F3952
:100D3000003A031D9C2E9D2EA62E3D000F1DA12EB8
:100D4000A22EA62E8831BB208531262F3D000F0C08
:100D50002000EC00EC0C6C0C0F39003A0319B12E9A
:100D6000B22E262F3D000F0C2000EC00EC0C6C0C7A
:100D70000F39ED0002306D020318BF2EC02E262F52
:100D80003D000F1DC42EC52EF42E07302000EC00B0
:100D90006C08F0003D000F0C2000ED00ED0C6D0C18
:100DA0000F399231F0228531063EC03E8600013077
:100DB0008700811CDC2EDD2EE82E3D000F0C20006C
:100DC000EC00EC0C6C0C0F3994314E248531262F3D
:100DD0003D000F0C2000EC00EC0C6C0C0F39913135
:100DE000CC218531262F262F07302000EC006C08FF
:100DF000F0003D000F0C2000ED00ED0C6D0C0F39E4
:100E00009231F0228531063EC03E860001308700D7
:100E1000011C0B2F0C2F172F3D000F0C2000EC0096
:100E2000EC0C6C0C0F39933163238531262F3D0078
:100E30000F0C2000EC00EC0C6C0C0F399131CD2123
:100E40008531262F262F262F262F262F3D00901165
:100E5000101F2B2F2C2F322F9131CE2185313D00A9
:100E60001013322F2000121D362F372F392F121159
:100E7000392F080020002108F2007208F700230033
:100E80005A03031D442F452F5C2F210044084504BD
:100E900003194B2F4C2F582FF001F00A4608F2008F
:100EA0007208F10045088A0044080A008731582F6B
:100EB000923118228731F52F23005B080319612F27
:100EC000622FF52F7708F200F30121004308730227
:100ED000031D6C2F42087202031C6F2F702F752F99
:100EE0004308F5004208F4007C2F7708F200F30174
:100EF0007208F4007308F5007408F2007208F80034
:100F000023005B0886008701912F23004E08840090
:100F10004F0885007808F20012001E00F20B8C2F9B
:100F2000922F852F7808F20072082300DB077808DB
:100F3000F200F30172082100C2027308C33B0830BB
:100F40007702031CA42FA52FAC2F42084304031DD6
:100F5000AA2FAB2FF52FAC2F770878020318B12FEB
:100F6000B22FCB2F92312C22873121004408450427
:100F70000319BB2FBC2FC72FF0014608F2007208DF
:100F8000F10045088A0044080A008731C72F9231D2
:100F900018228731F52FF601210044084504031972
:100FA000D22FD32FE22FF001F00A4608F200720888
:100FB000F10045088A0044080A008731F3007308ED
:100FC000F600E22FF61FE52FE62FEA2F92312C22B2
:100FD0008731EE2F9131FD218731EE2F2100C401A1
:100FE000C501F52FF52FF52FF52F08002300D501AA
:100FF000D601DB012100C201C301C401C501080003
:10100000080008002100A900A8010628291C0928B9
:101010000A280F282608A7002708A8070F2803106A
:10102000A60D0310A90C2908031D17281828062847
:10103000192828081B280800003020003302083037
:1010400003193202031C252826282B280830B60055
:101050000030B7002F283308B7003208B600360832
:10106000FA007A08BC003C08FA00FB0135087B0254
:10107000031D3C2834087A02031C3F2840284528D9
:101080003508B9003408B8004C283C08FA00FB01C8
:101090007A08B8007B08B9003808FA007A08BC0062
:1010A00035083302031D562834083202031C592820
:1010B0005B2801305C280030FA007A082300DC004D
:1010C00020003C080319652866287A282300500868
:1010D00086005108870078282000300884003108F5
:1010E00085003C08FA0012001E00FA0B73287928CC
:1010F0006C287A2820003C08FA00FB017A083007A7
:101100002300D5007B082000313D2300D6002000BD
:1011100033083502031D8E2832083402031C91283F
:10112000922897283308BB003208BA009C2835085B
:10113000BB003408BA009C283C08FA00FB01FA09FD
:10114000FB09FA0A0319FB0A3A087A072100C200D0
:1011500020003B087B3D2100C3002300D215200066
:101160003C08FA00FB017A08F6007B08F70094318E
:101170007E2488310800230058080319C028C1289C
:10118000C72857083D0096002300D801C728210032
:10119000420843040319CD28CE28322900304302E7
:1011A000083003194202031CD628D728DD2808304E
:1011B0002000B0000030B100E528210043082000E5
:1011C000B100210042082000B0003008FA007A087F
:1011D000B20023005008860051088700FC28230035
:1011E000550884005608850020003208FA001200D5
:1011F0001E00FA0BF728FD28EF2820003208FA001D
:10120000FB017A082100C2027B08C33B20003208A0
:10121000FA00FB017A082300D5077B08D63D2100A0
:1012200042084304031D15291629262908302000E9
:101230003206031D1C291D29262923005C080319D9
:10124000222923292629D901D90A26292000320852
:10125000FA00FB017A08F6007B08F70094317E243F
:10126000883163292300590803193729382944296B
:101270000030F600F70094317E2488312300D90134
:10128000923118228831632923005A08031D492905
:101290004A2963292100440845040319502951298A
:1012A0005D29F001F00A4608FA007A08F1004508C5
:1012B0008A0044080A0089315D2992311822883158
:1012C00063296329632908003D000E172300D2011A
:1012D000FC0102307C02031C6E296F2971298F29C1
:1012E0008F2904302000BA000730BB003B08F00013
:1012F0007C089231F0228931063EC03E86000130E2
:10130000870020003A0881000130BA003A08FC0743
:1013100002307C02031C8D298E2971298F292030EF
:10132000F0000030F1000030F200F3001030F40063
:101330000030F50093312623893123004F08F70050
:101340004E08F60095310525893177082000A30065
:101350007608A200AB290830A1008030BA003A0814
:10136000A000B22923005108F7005008F60095317B
:101370000525893177082000A7007608A600C02936
:101380000830BA003A08A500A401C629FC01FC0AED
:1013900002307C02031CCD29CE29D0297E2A7E2A48
:1013A0000730BA003A08F0007C089231F022893107
:1013B000C03E860001308700403FF600413FF70005
:1013C0009531052589317C352000BB000130BB35C6
:1013D000FF3E031DE7293B35023E203E8600870184
:1013E0007608C03F7708C13F0730BA003A08F000DE
:1013F0007C089231F0228931043EC03E86000130E3
:10140000870001082000BB007C35BC000130BC35E2
:10141000FF3E031D072A3C35013E203E8600870122
:101420003B0881008830BA007C35BB000130BB35F9
:10143000FF3E031D172A3B35203E860087013A08F0
:101440008100222A0730BA003A08F0007C08923165
:10145000F0228931023EC03E860001308700403FC5
:10146000F600413FF7009531052589317C35200094
:10147000BB000130BB35FF3E031D3A2A3B35063E1B
:10148000203E860087017608C03F7708C13F482A82
:101490000730BA003A08F0007C089231F022893116
:1014A000053EC03E86000130870001082000BB00D9
:1014B0007C35BC000130BC35FF3E031D5B2A3C354A
:1014C000053E203E860087013B0881007C35BA003E
:1014D0000130BA35FF3E031D692A3A35043E203EED
:1014E000860087018101742A0130BA003A08FC079E
:1014F00002307C02031C7D2A7E2AD0293D000E1377
:1015000008003D000E172300D2012100BF01023068
:101510003F02031C8C2A8D2A8F2AAC2AAC2A043065
:10152000BC000730BD003D08A6003F0888310220FE
:101530008A31063EC03E86000130870021003C080B
:1015400081000130BC003C08BF0702303F02031C91
:10155000AA2AAB2A8F2AAC2A2030A6000030A70086
:101560000030A800A9001030AA000030AB00933171
:1015700082238A3123004F082100AD0023004E084A
:101580002100AC00953156258A3121002D0820001C
:10159000A30021002C082000A200CE2A0830A100C0
:1015A00080302100BC003C082000A000D72A230086
:1015B00051082100AD00230050082100AC009531F6
:1015C00056258A3121002D082000A70021002C0873
:1015D0002000A600EB2A08302100BC003C082000B7
:1015E000A500A401F32A2100BF01BF0A02303F0277
:1015F000031CFB2AFC2AFE2AAE2BAE2B0730BC00B4
:101600003C08A6003F08883102208A31C03E86008F
:1016100001308700403F2100AC00413FAD009531D3
:1016200056258A3121003F35BD000130BD35FF3ED2
:10163000031D162B3D35023E203E860087012C08F7
:10164000C03F2D08C13F0730BC003C08A6003F0842
:10165000883102208A31043EC03E86000130870076
:1016600001082100BD003F35BE000130BE35FF3E00
:10167000031D362B3E35013E203E860087013D0886
:1016800081008830BC003F35BD000130BD35FF3ED4
:10169000031D462B3D35203E860087013C08810016
:1016A000512B0730BC003C08A6003F0888310220BF
:1016B0008A31023EC03E860001308700403F210053
:1016C000AC00413FAD00953156258A3121003F35B0
:1016D000BD000130BD35FF3E031D6A2B3D35063E82
:1016E000203E860087012C08C03F2D08C13F782B83
:1016F0000730BC003C08A6003F08883102208A3130
:10170000053EC03E86000130870001082100BD0073
:101710003F35BE000130BE35FF3E031D8B2B3E35ED
:10172000053E203E860087013D0881003F35BC0014
:101730000130BC35FF3E031D992B3C35043E203E55
:10174000860087018101A42B0130BC003C08BF0743
:1017500002303F02031CAD2BAE2BFE2A3D000E13C0
:10176000080092310F228B319631FA268B31B82B3B
:101770009131EB218B31003A0319BF2BC02BB82BD1
:101780000130923199228B31003A0319C82BC92BB1
:10179000B82B01309231C2228B3121002B0824005A
:1017A000AE0021002A082400AD00013092318622CB
:1017B0008B31003A031DDD2BDE2BBB2DE12BE12B02
:1017C000E12B0130923173228B31003A031DE92B5A
:1017D000EA2BE12BEB2B2B302300E30063082100E5
:1017E000AA000130933109238B3124002B08860095
:1017F0002C088700010803392300E3006308240054
:10180000A2002B0886002C08870001082300E300B3
:101810000230E336890B092C63082F39E400640891
:101820002400A3002208031D162C172CBB2D023008
:101830002302031C1C2C1D2CBB2D2B0886002C08FE
:101840008700413101082300E30063082400A80059
:1018500010302806031D2D2C2E2C8A2D2B088600D7
:101860002C088700433101082300E300E401240031
:101870002B0886002C088700423101082300E50070
:10188000E6016508E600E501630865072400A90094
:1018900023006408663D2400AA0029082A04031DC9
:1018A000522C532C8C2C9F302100A6009030A70086
:1018B00094312A248B3121002608013E2300E300C5
:1018C00063082400A40024082300E3000130E3356A
:1018D000FF3E031D672C6335083EE40024002D08FD
:1018E00086002E08870023006408810024002D084C
:1018F00086002E08870042318A2C9F308400903069
:101900008500240024082300E30012001E00E30BDE
:10191000852C8B2C7D2C682D240029032A04031D83
:10192000922C932CCC2CB6302100A6009030A7002E
:1019300094312A248B3121002608013E2300E30044
:1019400063082400A50025082300E3000130E335E7
:10195000FF3E031DA72C6335083EE40024002D083C
:1019600086002E08870023006408810024002D08CB
:1019700086002E0887004231CA2CB6308400903091
:101980008500240025082300E30012001E00E30B5D
:10199000C52CCB2CBD2C682D0230240029062A042E
:1019A000031DD32CD42C0D2DAB302100A60090307C
:1019B000A70094312A248B3121002608013E230000
:1019C000E30063082400A60026082300E30001309A
:1019D000E335FF3E031DE82C6335083EE400240098
:1019E0002D0886002E08870023006408810024004B
:1019F0002D0886002E08870042310B2DAB30840065
:101A000090308500240026082300E30012001E0009
:101A1000E30B062D0C2DFE2C682D03302400290627
:101A20002A04031D142D152D4E2DB2302100A600C1
:101A30009030A70094312A248B3121002608013EE2
:101A40002300E30063082400A70027082300E30025
:101A50000130E335FF3E031D292D6335083EE400C8
:101A600024002D0886002E088700230064088100CA
:101A700024002D0886002E08870042314C2DB230FC
:101A8000840090308500240027082300E300120022
:101A90001E00E30B472D4D2D3F2D682D24002D08F2
:101AA00086002E088700083081002D08013E2300A3
:101AB000E300003024002E3D2300E400630886008C
:101AC0006408870004308100682D682D682D682D1A
:101AD00001309231C2228B3121002A0886002B0866
:101AE00087007F2D24002D0884002E0885004030BB
:101AF0002300E30012001E00E30B7A2D802D722DCF
:101B000040302100AC000030AD0001309631862617
:101B10008B31BB2D113024002806031D902D912DF3
:101B2000BB2D2B0886002C088700433101082300B9
:101B3000E300E40124002B0886002C0887004231D2
:101B400001082300E500E6016508E600E5016308F9
:101B500065072400A00023006408663D2400A1005E
:101B6000BB2DBB2DBB2DBB2DBB2DBB2DBB2DBB2D35
:101B7000BB2DBB2DBB2D013097316F278B31B82B7F
:101B8000B82BB82B8231132A200044088600450860
:101B9000870044310108C6004608E6004408860074
:101BA00045088700413106300106031DD82DD92D87
:101BB000582E440886004508870081300106031D21
:101BC000E22DE32D582E4408860045088700423157
:101BD000403FC600413FC7004708C8004808DC0036
:101BE000FF30E400FF30E50021305C06031DF92DD5
:101BF000FA2D082E6230C6004608F00066089231C1
:101C000050228D3171082000E5007008E4001D2E7F
:101C100022305C06031D0D2E0E2E1D2E6230C600D6
:101C20004608F0006608923143228D317108200089
:101C3000E5007008E4001D2E1D2EE51F202E212E2C
:101C4000242EFF30FF2FFF2F440886004508870011
:101C50004631403FC600413FC70047086502031DAB
:101C6000332E46086402031C362E372E412E4408BC
:101C70008600450887004631403FD600413FD700E7
:101C8000462E6508D7006408D600462E6308BE00BD
:101C90006208BD005708C0005608BF000030C100F0
:101CA000C200C301933144238D310030FF2FFF2F39
:101CB000FF302000E000FF30E100440886004508C6
:101CC000870041310103031D662E672EE32E440871
:101CD000860045088700A1300106031D702E712E75
:101CE000E32E44088600450887004231403FC60085
:101CF000413FC7004708C8004808CB004408860099
:101D00004508870042310108C6004608CC004B0850
:101D1000C6004608F0004C08C7004708F1005E30D6
:101D2000C8004808F2005A30C9004908F3005F3083
:101D3000CA004A08F40066089231D8228D31710831
:101D40002000E1007008E000E11FA72EA82EAB2EB6
:101D5000FF30FF2FFF2F44088600450887004631DB
:101D6000403FC600413FC70047086102031DBA2E2D
:101D700046086002031CBD2EBE2EC82E44088600F5
:101D8000450887004631403FD800413FD900CD2E5D
:101D90006108D9006008D800CD2E5E08BD00013072
:101DA000BE005908C0005808BF005B08C2005A08AE
:101DB000C1005F08C6004608C300933144238D313B
:101DC0000030FF2FFF2F20004408860045088700C1
:101DD000413109300106031DEE2EEF2E222F44085B
:101DE00086004508870021300106031DF82EF92ED4
:101DF000222F44088600450887004231403FC60034
:101E0000413FC7004708C8004808CD004408860085
:101E10004508870042310108C6004608CE004D083B
:101E2000C6004608F0004E08C7004708F1006608E3
:101E30009131DE218D312000C8004808CF004F08C5
:101E4000FF2FFF2F440886004508870041310230EC
:101E50000106031D2C2F2D2F5E2F440886004508F8
:101E60008700A1300106031D362F372F5E2F44084F
:101E700086004508870042310108C6004608D000A8
:101E80005008C6004608F00066089131D2218D3115
:101E90002000C7004708D1005130BD000030BE000F
:101EA0000130BF000030C0000030C100C200C301DB
:101EB000933144238D310030FF2FFF2F2000440841
:101EC00086004508870041310A300106031D692F4D
:101ED0006A2F9D2F4408860045088700213001069F
:101EE000031D732F742F9D2F44088600450887001B
:101EF0004231403FC600413FC7004708C80048087C
:101F0000D200440886004508870042310108C60017
:101F10004608D3005308C6004608F0005208C70020
:101F20004708F10066089131D8218D312000C800A2
:101F30004808D4005408FF2FFF2F440886004508A6
:101F40008700413103300106031DA72FA82FD32F8F
:101F50004408860045088700A1300106031DB12F03
:101F6000B22FD32F66089131D5218D312000C600C4
:101F70004608DD00DD1FBD2FBE2FC12FFF30FF2F14
:101F8000FF2F5D30BD000030BE000130BF000030CB
:101F9000C0000030C100C200C301933144238D3121
:101FA0000030FF2FFF2F20004408860045088700DF
:101FB00041310B300106031DDE2FDF2FFD2F4408BA
:101FC00086004508870021300106031DE82FE92F10
:101FD000FD2F440886004508870042310108C600ED
:101FE0004608F00066089131DB218D312000C700E2
:101FF0004708D5005508FF2FFF2FFF30FF2F08009F
:1020000018340334493400346E34003474340034EA
:102010006534003472340034663400346134003482
:1020200063340034653400342034003431340034F7
:10203000093402342934003401340134003480344A
:1020400032340934043400340034023403340034AC
:1020500000340034093421340134013400340134B3
:1020600022341C34003407340534813403344034C2
:10207000003401340734053401340334403400346F
:10208000013406340034FF3409340134A1340134FE
:1020900019340134293440341534013425344034A2
:1020A00075340834953440348134003419340134A3
:1020B0002934403491340034C03418340334433468
:1020C0000034683400346F340034703400347034B9
:1020D0000034653400347234003420340034483421
:1020E000003455340034423400341834033474342A
:1020F00000346F3400346F3400346C340034623494
:10210000003469340034743400342E3400346F34B5
:102110000034723400346734003412340134003433
:1021200002340034003400340834D83404343F34EA
:1021300000340334003401340234003401345534A3
:10214000533442342034433448344F3450345034C0
:1021500045345234003453344E3430343034303417
:102160003134003430342E343134003430342E34B1
:0C217000323400340434033409340434E5
:102398000800080008000030D12908000030D429BE
:1023A80008000130D7290800FF30DA290800FF307B
:1023B800DD290800FF30E02908000030E329080083
:1023C8000030E6290800F001F101EA29080021009F
:1023D8004708EE290800FF30F000FF30F100F4292B
:1023E80008000830F00070082000A500A401FC29AE
:1023F80008002000A401A501C830F0007008A4005E
:10240800052A080008302000A1008030F00070087C
:10241800A0000E2A08003C302100990427001B1652
:102428009B170B178B1708002300D501D601DB017A
:102438002100C201C301C401C501080020006808C9
:10244800C5006708C4008D31C42592312B2A0800C5
:102458000830F00070082000A5008430F0007008F3
:10246800A400362A0800FE0012001E000130FE02F9
:102478000030FF3B7F087E04031D382A00347008B3
:10248800860087014130C03F9030C13F1C30F000CA
:102498000030F1004F2A08002A30F3009030F40091
:1024A8007008860087017308C03F7408C13F09306F
:1024B800F0000030F100602A0800F5000730F40051
:1024C8007408F00075089231F0229231063EC03E41
:1024D80086000130870001080239722A08002100AD
:1024E800A7002735A6000130A635FF3E031D782A30
:1024F8002635043E203E86008701010D010D013975
:10250800852A08002100AB000730AA002A08A60087
:102518002B08883102209231063EC03E86000130E9
:10252800870001080239982A08002100A7002735EA
:10253800A6000130A635FF3E031D9E2A2635203E03
:10254800860087010310811F03140030093DAC2A5F
:1025580008000034003400340034003400340034FF
:1025680090342034D0342034403440340034803423
:102578002034883420340034183490342100AD00DD
:102588000730AC002C08A6002D08883102209231B3
:10259800023EC03E860001308700403F2100AA006D
:1025A800413FAB00D72A0800DD30F50072088600ED
:1025B800870175088100730886008701CF30C03F06
:1025C8001130C13F74088600870181010330F00093
:1025D8000030F100EF2A0800F200F301F32A721C20
:1025E800F62AF72AFC2A7008F1007108F307FC2A7A
:1025F8000310F00D0310F20C7208031D042B052BB9
:10260800F32A062B7308082B08002100AC000730BA
:10261800AB002B08A6002C08883102209331C03E5D
:1026280086000130870021002A08840002308500D6
:10263800403F803F413F813F203086000030870087
:10264800252B08007108F7007008F600362B76086D
:10265800860077088700720881000130F60700308D
:10266800F73D362B0130F4020030F53B740A031DA8
:10267800412B750A031D412B422B2B2B432B0800A2
:10268800200042082100C500200041082100C400A4
:1026980020004308FC007C082100C60020003E08FA
:1026A800B1003D08B0004008B3003F08B200400840
:1026B800B5003F08B40088311C2093310800F200AF
:1026C8007235F0000130F035FF3E031D672B703581
:1026D800013E203E8600870181018430F00072357A
:1026E800F1000130F135FF3E031D762B7135203E98
:1026F8008600870170088100812B080021002708C7
:10270800AD002608AC00932B2C0886002D08870006
:10271800280881000130AC070030AD3D932B013013
:10272800AA020030AB3B2A0A031D9E2B2B0A031D6D
:102738009E2B9F2B882BA02B0800F90079080319E2
:10274800A62BA72BC22B02307902031CAC2BAD2B76
:10275800AF2BC22BC22B0730F8007808F00079089D
:102768009231F0229331063EC03E86000130870048
:102778008114790894314E249331C22B0800F50056
:1027880075080319C82BC92BE42B02307502031CEA
:10279800CE2BCF2BD12BE42BE42B0730F40074087D
:1027A800F00075089231F0229331063EC03E860053
:1027B8000130870001147508933163239331E42BAA
:1027C8000800F401F501E82B701CEB2BEC2BF02B27
:1027D8007208F4077308F53D0130F235F30D890BE3
:1027E800F12B0130F136F00C890BF62B70087104CF
:1027F800031DFF2B002CE82B012C7508F100740831
:10280800F000062C08002100AA01AB010B2C261CA5
:102818000E2C0F2C132C2808AA072908AB3D0130D1
:10282800A835A90D890B142C0130A736A60C890BE5
:10283800192C26082704031D222C232C0B2C242CAE
:102848002B08A7002A08A600292C08002100270821
:10285800AB002608AA00352C0130AA070030AB3D92
:10286800352C2A0884002B0885001200031D3D2CF6
:102878003E2C302C3F2C2609A8002709A900A80ABD
:102888000319A90A2A082807A6002B08293DA7002A
:102898004D2C0800F7000730F4007408F0007708A2
:1028A8009231F0229431053EC03E86000130870007
:1028B8000108F5007735F6000130F635FF3E031DB7
:1028C800612C7635053E203E86008701750881001B
:1028D8008430F4007735F5000130F535FF3E031DEF
:1028E800712C7535043E203E8600870174088100EE
:1028F8007D2C08000030923161229431003A031D8A
:10290800862C872CB42C2300D2198B2C8D2C0130CB
:102918008E2C0030F8007808F9002000A40179080E
:102928000319972C982CA42C992C7608F800780871
:10293800A500C830F8007808A400AE2CAE2CA42C52
:102948007608F8007808A5008830F8007808A40010
:10295800AE2CAE2C0830F80078082300D206B42C30
:102968000800F3007308031DBA2CBB2CC92C70088F
:1029780086008701BA30C03F9030C13F0430F00074
:102988000030F100042D042DFF2C7303031DCD2C02
:10299800CE2CDC2C7008860087017530C03F903043
:1029A800C13F1830F0000030F100042D042DFF2C39
:1029B80002307306031DE12CE22CF02C700886000F
:1029C80087015D30C03F9030C13F1830F0000030C3
:1029D800F100042D042DFF2C03307306031DF52C84
:1029E800F62CFF2CFF30F000FF30F100042D042DF1
:1029F800FF2CFF2CFF2CFF30F000FF30F100042DDE
:102A080008007708FB007608FA0020307B020030C7
:102A180003197A02031C112D122D182D7B08F700BB
:102A28007A08F600552D552D7B082000B000300897
:102A3800F8007A08B0003008F90079088039B00049
:102A4800B1017808B200B301B235B30D30083207CE
:102A5800B4003108333DB50034083504031D352D65
:102A6800372D0130382D0030B600B7013608F00098
:102A78003708F1005030F2000030F3009331E523BD
:102A8800953179087F3970072000B800710803185C
:102A9800710AB9003808E03EF6001F30393DF700EA
:102AA800552D080021002D08BB002C08BA00203045
:102AB8003B02003003193A02031C632D642D6A2D72
:102AC8003B08AD003A08AC00A62DA62D3B08AE0089
:102AD8002E08B8003A08AE002E08B9003908803927
:102AE800AE00AF013808B000B101B035B10D2E0805
:102AF8003007B2002F08313DB30032083304031DFC
:102B0800862D882D0130892D0030B400B501340898
:102B1800A6003508A7005030A8000030A90094315D
:102B280007249531210039087F392607B600270880
:102B38000318270AB7003608E03EAC001F30373DBF
:102B4800AD00A62D08003D0011109110AB2D92018B
:102B580097018E1511161115901190119011901161
:102B6800900192159216121412179830F0000E3038
:102B7800F1000030F200F3001030F4000030F500EE
:102B88009331262395313D0018169811181598147D
:102B980018102000BF01BF0A02303F02031CD52DC8
:102BA800D62DD82D062E062E3F08983EBD00BE0114
:102BB8000E30BE3D3D08C0003E08C10040088600FA
:102BC80041088700011640088600410887008115E2
:102BD8004008860041088700011540088600410822
:102BE80087008114400886004108870001100130E1
:102BF800BD003D08BF0702303F02031C042E052E0E
:102C0800D82D062E3D0096012300D8012100C701CA
:102C1800893164219531923118229531210012159C
:102C2800080023004F082000EB0023004E08200076
:102C3800EA006A0886006B0887000030811B0130B3
:102C48002300DA009131F52196312000A41F2D2EA2
:102C58002E2E362E2F2E0830FD007D08A500A4014B
:102C6800362E362E21004208430403193C2E3D2EF1
:102C7800522E440845040319422E432E4E2EF001CD
:102C88004608FD007D08F10045088A0044080A004E
:102C980096314E2E923118229631522E20006A0813
:102CA80086006B088700010E890C0339003A031D62
:102CB8005E2E5F2E6F2E82313A229631FD007D08FE
:102CC8002000E900E91F692E6A2E832E6F2E6F2ED1
:102CD800832E6F2E832E6B08E8006A08E700923176
:102CE80022229631FD007D082000E900E91F7D2E93
:102CF8007E2E832E92312C229631832E832E3D00F8
:102D08000E1208002100B100470803198C2E8D2EE1
:102D1800F92E3108923186229631003A031D952EFC
:102D2800962EF92E21003135AE000130AE35FF3E2A
:102D3800031D9A2E2E35043E203EAF002F08B20008
:102D48000730AE002E08A6003108883102209631DF
:102D5800063EC03E8600013087008119B42EB62E8B
:102D68000130B72E00302100AF002F08B000320824
:102D780086008701810130080319C32EC42ED62E80
:102D8800C52E2C08AE00320A860087012E08810065
:102D9800C830AE003208860087012E088100E62E72
:102DA800E62ED62E2C08AE00320A860087012E08A1
:102DB80081008830AE003208860087012E08810025
:102DC800E62EE62E0830AE000730AF002F08A6002A
:102DD8003108883102209631063EC03E8600013017
:102DE800870021002E088106F92E08003D001110E9
:102DF8009110FE2E920197018E1511161115901142
:102E080090119011901190019215921612141217A8
:102E180098302100A6000E30A7000030A800A900B5
:102E28001030AA000030AB009331822396313D0068
:102E3800181698111815981418102300E001E00AC4
:102E480002306002031C292F2A2F2C2F602F602F9D
:102E58006008983E2100C000C1010E30C13D400805
:102E68002300E100210041082300E20061088600F8
:102E780062088700011661088600620887008115CC
:102E880061088600620887000115610886006208EB
:102E980087008114610886006208870001100130EC
:102EA8002100C00040082300E00702306002031C34
:102EB8005E2F5F2F2C2F602F3D0096012300D80135
:102EC8002100C7018A31812296318731F627963150
:102ED8002100121508002100AE000730AA002A08B8
:102EE800A6002E08883102209731063EC03E860093
:102EF800013087000119812F832F0130842F003082
:102F08002100AB002B08AD002D0803198C2F8D2F45
:102F1800BE2F8E2F0730AA002A08A6002E08883157
:102F280002209731043EC03E860001308700010828
:102F38002100AB002E35AC000130AC35FF3E031D3F
:102F4800A12F2C35013E203E860087012B088100E9
:102F5800C830AA002E35AB000130AB35FF3E031D4B
:102F6800B12F2B35203E860087012A088100ED2FDE
:102F7800ED2FBE2F0730AA002A08A6002E08883198
:102F880002209731043EC03E8600013087000108C8
:102F98002100AB002E35AC000130AC35FF3E031DDF
:102FA800D12F2C35013E203E860087012B08810059
:102FB8008830AA002E35AB000130AB35FF3E031D2B
:102FC800E12F2B35203E860087012A088100ED2F4E
:102FD800ED2F0430AA000730AB002B08A6002E08FE
:102FE800883102209731063EC03E860001308700B6
:082FF80021002A0881060800EF
:020000040001F9
:04000E00E4CFCFD795
:00000001FF
