:10040000000082310A2A08007E1482318931442199
:100410007E10090082310C2A21009D315B2582313A
:10042000C1009D315C258231C200723084009D3054
:100430008500EA308600013087000030FF0005307B
:100440009D31D7258231F03084009D3085005830B1
:100450008600023087000030FF000E309D31D72526
:100460002000EE01EF012100B601B701B801B9018A
:10047000BA01BB01BC01BD01BE01BF01C001230027
:10048000EF012400E601E701E8017E10200085313C
:100490008D2D2000D20123006B082000E6002300F0
:1004A0006A082000E500650886006608870041317B
:1004B00006300106031D192B6508860066088700B3
:1004C00080300106031D192B650886006608870029
:1004D0004231403FC500413FC6004608C7004708BB
:1004E000E200650886006608870042310108C50001
:1004F0004508E3006203031D992A8D30B10098304E
:10050000B2008D308400983085000008C500C60117
:100510004508B3004608B4006508860066088700F1
:100520004631403FB500413FB600943156248231F8
:100530008A2D02306206031DCC2A63080319A42AFF
:100540009D31AB2582318A2D6335C13E86008701FE
:10055000403FD400413FD5005508B2005408B100D7
:100560005508C6005408C5000230450784004608F7
:100570000318460A8500003FB300013FB400650838
:100580008600660887004631403FB500413FB6000F
:100590009431562482318A2D03306206031DF32ADA
:1005A0006030C5004508F00063089031FF208231BB
:1005B0007108D7007008D600D71BA02A6108B200C6
:1005C0006008B1005708B4005608B30065088600FB
:1005D000660887004631403FB500413FB600943180
:1005E000562482318A2D6608F1006508F0005A30E1
:1005F000C5004508F2009D31632582317108D9009C
:100600007008D800D91BA02A5A08B1000030B200E7
:100610005908B4005808B3006508860066088700CA
:100620004631403FB500413FB600943156248231F7
:100630008A2D65088600660887004131053001066D
:10064000031D342B2300EF01EF0A2000650886000C
:100650006608870042310108C50045082100C00036
:100660009D318B2582318A2D6508860066088700BA
:10067000413109300106031D552B650886006608C7
:10068000870042310108C5004508DB005B0887315F
:10069000FF2782318B31762382319D318B25823148
:1006A0005B08C5004508EF008A2D650886006608CE
:1006B0008700413108300106031D732B6F30B100F4
:1006C0000030B2000130B3000030B400650886008D
:1006D000660887004631403FB500413FB60094317F
:1006E000562482318A2D65088600660887004131CC
:1006F0000108031D062C65088600660887000108AE
:100700001F39003A031DA02B9D315D2582317108F0
:10071000CC007008CB004B30B1000030B20002308A
:10072000B3000030B40065088600660887004631D3
:10073000403FB500413FB6009431562482318A2DA6
:10074000650886006608870001081F39023A031D04
:10075000A02A6508860066088700443101080F3921
:10076000C5004508DC0002305C020318A02A5C08C2
:10077000C500C6014508F0004608F1000730F20048
:100780000030F3009E31782682315E302000C700B1
:100790000230C8007008470786007108483D87008E
:1007A0000108C9004908DD00650886006608870061
:1007B0004431811BDE2B5D080139E02B5D080239D5
:1007C000C500C6014508CF004608D0004F085004B8
:1007D0000319EC2B0130ED2B0030C5004508CD008E
:1007E000CE014D30B1000030B2000230B300003015
:1007F000B40065088600660887004631403FB500B2
:10080000413FB6009431562482318A2D6508860016
:100810006608870041310B300106031D272C65084F
:1008200086006608870042310108C5004508F000CF
:100830006508860066088700443101089D31592506
:100840008231C6004608D100D11BA02A302B650892
:1008500086006608870041310A300106031D532CCB
:100860006508860066088700443101089D315725D8
:100870008231C5004508DE00DE1BA02A5E30B100D3
:100880000030B2000130B3000030B40065088600CB
:10089000660887004631403FB500413FB6009431BD
:1008A000562482318A2D650886006608870041310A
:1008B00001030319642C650886006608870041312E
:1008C00003300106031D882DD301D30A6508860075
:1008D0006608870001081F39023A031D842D650848
:1008E000860066088700423116000104031D842D2E
:1008F0006508860066088700443101080F39C50085
:100900004508E40065088600660887004431010850
:100910008039C5004508DF00023064020318842DC9
:100920006508860066088700413103300106031D13
:10093000A62C5F080319A12C64089031292082316C
:100940006A2D64089F315A2782316A2D5F08031986
:10095000FC2C6408C500C6014508F0004608F100FB
:100960000730F2000030F3009E31782682315D308E
:100970002000C7000230C8007008470786007108D1
:10098000483D87000108C9006408CA000230CA3522
:10099000FF3E031DC72C4A35253E860087014908C6
:1009A00081006408C5000230C535FF3E031DD42C0C
:1009B0004535243E860087018101F730C500640873
:1009C000C600C7014608F0004708F1000730F200F2
:1009D0000030F3009E31782682315E302000C8005E
:1009E0000230C9007008480786007108493D870039
:1009F00045088105FD304E2D6408C500C601450837
:100A0000F0004608F1000730F2000030F3009E319C
:100A1000782682315C302000C7000230C8007008A0
:100A2000470786007108483D87000108C90064082F
:100A3000CA000230CA35FF3E031D1A2D4A35213E39
:100A400086008701490881008830C5006408C60017
:100A50000230C635FF3E031D292D4635203E860057
:100A60008701450881006408C500C6014508F000FB
:100A70004608F1000730F2000030F3009E3178267E
:100A800082315E302000C7000230C800700847077E
:100A900086007108483D87000115FE30C5006408D6
:100AA000C600C7014608F0004708F1000730F20011
:100AB0000030F3009E31782682315E302000C8007D
:100AC0000230C9007008480786007108493D870058
:100AD00045088105200065088600660887004131C9
:100AE00003300106031D762D0130772D0030C5003F
:100AF0004508F00065088600660887004431010853
:100B0000823103228231D30153080319302BA02AEA
:100B1000D201D2032000520808008831002085311C
:100B20008831092085319331092385312400BA01A8
:100B30009D3160258531003A0319982D01309E3191
:100B40001F268531003A0319982D013090314F202E
:100B5000853127082400BF00210026082400BE009C
:100B60000130903104208531003A031DE22F01301D
:100B70009E310E268531003A031DB72D3C302400EE
:100B8000A80028082100B30001309031A020853151
:100B900024003C0886003D0887000108C039A800F1
:100BA0002808B3003C0886003D08870001082F395B
:100BB000A8002808B4003308031DE22F02303402D5
:100BC000031CE22F3C0886003D08870041310108E4
:100BD000A8002808B7003E08013EA80000303F3DAD
:100BE000A9002808860029088700370881003C08EA
:100BF00086003D08870043310108A800A9013C0890
:100C000086003D08870042310108AA00AB012A088E
:100C1000AB00AA0128082A07B50029082B3DB60019
:100C2000BB2F3E08023EA80000303F3DA900280827
:100C3000860029088700013081003E0886003F08B1
:100C400087008101492FA4302100AD009830AE000B
:100C50009E31492685312D08013E2400A800280830
:100C6000BB003B08033EA8003E0886003F08870003
:100C7000280881043E0886003F0887004331A430DD
:100C800084009830850024003B08A8002808031938
:100C9000C32F12001E00A80B492EC32F0530A80039
:100CA0003E0886003F0887002808810420000E0CBB
:100CB000890C0139303E2400A8003E08033EA900FB
:100CC00000303F3DAA00290886002A08870028082E
:100CD00081003E0886003F0887004431472F0B30D3
:100CE000A8003E0886003F088700280881043E08C7
:100CF00086003F0887004331F83084009F3085002C
:100D000008302400A80028080319C32F12001E0071
:100D1000A80B862EC32FAD302100AD009830AE0059
:100D20009E31492685312D08013E2400A80028085F
:100D3000BB003B08033EA8003E0886003F08870032
:100D4000280881043E0886003F0887004331AD3003
:100D500084009830850024003B08A8002808031967
:100D6000C32F12001E00A80BB12EC32F0530A80000
:100D70003E0886003F088700280881043A08913120
:100D80006921853131082400B90021003008240090
:100D9000B8003908A8003E08043EA90000303F3DD5
:100DA000AA00290886002A088700280881003E0832
:100DB000033EA80000303F3DA9002808860029080E
:100DC000870038088100C32F0730A8003E0886003E
:100DD0003F08870028088104973158278531230868
:100DE000AD002408AE002508AF003E0886003F088D
:100DF0008700433181013E0886003F088700443167
:100E00002D3084000230850003302400A80028081B
:100E10000319C32F12001E00A80B0A2FC32F07307F
:100E2000A8003E0886003F08870028088104963104
:100E3000B02685312308B0002408B1002508B2008F
:100E40003E0886003F088700433181013E08860046
:100E50003F08870044313030840002308500033081
:100E60002400A80028080319C32F12001E00A80B95
:100E7000352FC32F0330A8003E0886003F088700A7
:100E8000280881043E0886003F088700423181011E
:100E9000C32F3608003A0319542F143A0319622F4E
:100EA000953A0319672F3A2F3508003A0319232E74
:100EB000013A03194E2E033A03196F2E013A031912
:100EC0008B2E3A2F3508033A0319B62E3A2F3508E0
:100ED000013A0319E42E023A03190F2F3A2F3E0864
:100EE00086003F088700033081003E08023EA800CC
:100EF00000303F3DA90028088600290887000130FE
:100F00008100A72F3C0886003D0887004431010876
:100F1000A8002808BA00C32F3C0886003D088700B7
:100F200045310108A80028082100AE0024003C0833
:100F300086003D08870044310108A90029082100E6
:100F4000AF0024003A089E31AE268531C32F360803
:100F5000143A0319AC2F422F3508013A0319822F96
:100F6000023A03198C2F422F3E0886003F08870063
:100F700003308100422F3708123A03196F2F013ACC
:100F80000319112EB42F013090314F2085312608DE
:100F900086002708870024003E0884003F0885005B
:100FA0004030A80028080319D92F12001E00A80BF2
:100FB000D52F40302100B4000030B500013093310E
:100FC000CE238531013088316E208531982D2E0851
:100FD000B4002D08B3000130B1020030B23B310A39
:100FE0000319320A03190800330886003408870001
:100FF0002F0881000130B3070030B43DEB2F08000B
:101000003C302100990427001B169B170B178B17E8
:10101000080022008E0123008E0120008E0107307F
:1010200021008E00383024008C0021009513803080
:1010300084009F308500003F2400D500013FD6008A
:10104000023FD700833084009F308500003FD200EC
:10105000013FD300023FD400863084009F308500DA
:10106000003FCF00013FD000023FD1008930840013
:101070009F308500003FCC00013FCD00023FCE00F5
:101080008C3084009F308500003FC900013FCA00BA
:10109000023FCB008F3084009F308500003FC600A8
:1010A000013FC700023FC800923084009F30850096
:1010B000003FC300013FC400023FC50095308400DB
:1010C0009F308500003FC000013FC100023FC200C9
:1010D0009D31772588319D31E32508002100B4003A
:1010E00034082300C000C10140082100AD002300E6
:1010F00041082100AE000730AF000030B0009E3143
:10110000C92688315E302300C2000230C3002100AE
:101110002D0823004207860021002E082300433DAE
:101120008700011D9528013096280030C40044082E
:101130002100B30033080319DB2834082300C00062
:10114000C10140082100AD00230041082100AE008C
:101150000730AF000030B0009E31C92688315C30C6
:101160002300C2000230C30021002D0823004207E3
:10117000860021002E082300433D87000108C4009B
:10118000210034082300C5000230C535FF3E031D91
:10119000C5284535213E8600870144088100C830B6
:1011A000C000210034082300C1000230C135FF3ED9
:1011B000031DD628182934082300C000C1014008A7
:1011C0002100AD00230041082100AE000730AF0030
:1011D0000030B0009E31C92688315C302300C20047
:1011E0000230C30021002D082300420786002100A1
:1011F0002E082300433D87000108C4002100340865
:101200002300C5000230C535FF3E031D03294535C7
:10121000213E86008701440881008830C0002100FB
:1012200034082300C1000230C135FF3E031D1429DC
:101230004135203E86008701400881000430C0000F
:10124000210034082300C100C20141082100AD0083
:10125000230042082100AE000730AF000030B0008C
:101260009E31C9265E302300C3000230C400210035
:101270002D0823004307860021002E082300443D4B
:1012800087004008810608003D00101C4F299D3151
:101290004A2589319231AA2289313D001010901ED1
:1012A0007B2901302100AA000030AB0098302100DA
:1012B000A3000E30A4002A082307A5002B08243D14
:1012C000A6002508A8002608A900280886002908E5
:1012D000870001100130AA070030AB3D2B08803A8F
:1012E000A30080302302031D772902302A02031C49
:1012F00056293D0090129019921D432A0F0C21008F
:10130000A300A30C230C0F39003A031DAC293D00A8
:101310000F19AC292000200C890C0F392100A300E3
:101320002308AC000D302C06031D9A299131F321BE
:101330008931A82909302C060319A8292C03031D7B
:10134000A529953170258931A8299D31AB25893191
:101350009D3193258931412A3D000F0C2100A300C6
:10136000A30C230C0F39003A031DBD293D000F1DAE
:10137000BD299431E2248931412A3D000F0C21001E
:10138000A300A30C230C0F39003A0319412A3D0096
:101390000F0C2100A300A30C230C0F39A400023072
:1013A00024020318412A3D000F1D0C2A0F0C2100B6
:1013B000A300A30C230C0F39A400A5012408F000FE
:1013C0002508F1000730F2000030F3009E31782646
:1013D00089315E302100A6000230A7007008260780
:1013E00086007108273D8700811C012A3D000F0CF3
:1013F0002100A300A30C230C0F3991313121893135
:10140000412A3D000F0C2100A300A30C230C0F392F
:101410009D3147258931412A0F0C2100A300A30CDF
:10142000230C0F39A400A5012408F0002508F100C1
:101430000730F2000030F3009E31782689315E30AB
:101440002100A6000230A700700826078600710858
:10145000273D8700011C372A3D000F0C2100A30007
:10146000A30C230C0F399F3101278931412A3D00FC
:101470000F0C2100A300A30C230C0F399D3148252C
:1014800089313D009011101F492A9D31492589312C
:1014900010132000121D0800121108005F08E5005B
:1014A0006008E6006108E7000310660D670DE800BC
:1014B00068082400A20023006208E5006308E60033
:1014C0006408E7000310660D670DE8006808240053
:1014D000A100220803197B2A210822020318832A6B
:1014E00021082300E500240022082300E50219302A
:1014F0006502031C832A23006208DF006308E00002
:101500006408E100080024002108031908002208EB
:1015100021020318962A22082300E500240021084E
:101520002300E50219306502031808000630230085
:10153000E50065082400A0002300E11FA12A240083
:10154000A0172300E41FA62A240020172300E01779
:10155000FF30DF05FF30E0050030E105E317FF3025
:10156000E205FF30E3050030E405240021082202F3
:101570000318E02A01302300E235E30DE40D890B66
:10158000BB2A01302400A102210822060319DB2A0C
:101590000130A002200807390319DB2ABA2A0130DA
:1015A0002300E136E00CDF0C890BD02A0130E50086
:1015B00065082400A207220821060319092BCF2A57
:1015C000220821020318092B01302300DF35E00D2A
:1015D000E10D890BE52A01302400A2022108220630
:1015E0000319052B0130A002200807390319052B28
:1015F000E42A01302300E436E30CE20C890BFA2ADA
:101600000130E50065082400A10722082106031D1A
:10161000F92AA01F1C2BFF302300DF06FF30E00655
:10162000FF30E1060130DF07003003180130E0072A
:10163000003003180130E1072400201F302BFF3059
:101640002300E206FF30E306FF30E4060130E20744
:10165000003003180130E307003003180130E407BD
:101660002400A00123005F08E2076008E33D610851
:10167000E43DE41F4E2BFF30E206FF30E306FF306F
:10168000E4060130E207003003180130E3070030C0
:1016900003180130E4072400A001A00A2300620817
:1016A0002100AD00230063082100AE002300640880
:1016B0002100AF00240022082300E5006508210076
:1016C000B000240020082300E60066082100B100D5
:1016D00093316A232D082300DF0021002E08230008
:1016E000E00021002F082300E10008003D000E1754
:1016F0002300EE012000C4014408BC00BD013C08E9
:10170000F0003D08F1000730F2000030F3009E3198
:1017100078268B315E302000BE000230BF0070089A
:101720003E07C00071083F3DC100400886004108E7
:101730008700043081000130BC003C08C40702303F
:101740004402031C7C2B2030F0000030F1000030FC
:10175000F200F3001030F4000030F5009E316026F6
:101760008B3123006B08F7006A08F6009131A6213F
:101770008B3177082000A3007608A2000830A10072
:101780008030BC003C08A00023006D08F7006C0806
:10179000F6009131A6218B3177082000A70076084A
:1017A000A6000830BC003C08A500A401C401C40A7E
:1017B0004408BC00BD013C08F0003D08F1000730C2
:1017C000F2000030F3009E3178268B315830200033
:1017D000BE000230BF0070083E07860071083F3D22
:1017E0008700403FC200413FC3004308F700420862
:1017F000F6009131A6218B3120004408BC00023054
:10180000BC35FF3E031D002C3C35223E860087017F
:101810007608C03F7708C13F4408BC00BD013C08C2
:10182000F0003D08F1000730F2000030F3009E3177
:1018300078268B315C302000BE000230BF0070087B
:101840003E07860071083F3D87000108C00044083C
:10185000C1000230C135FF3E031D2A2C4135213E17
:1018600086008701400881008830BC004408BD0024
:101870000230BD35FF3E031D392C3D35203E86002C
:1018800087013C0881004408BC00BD013C08F00011
:101890003D08F1000730F2000030F3009E31782659
:1018A0008B315A302000BE000230BF0070083E0766
:1018B000860071083F3D8700403FC200413FC300A2
:1018C0004308F7004208F6009131A6218B31200031
:1018D0004408BC000230BC35FF3E031D6B2C3C3578
:1018E000263E860087017608C03F7708C13F44083E
:1018F000BC00BD013C08F0003D08F1000730F200DB
:101900000030F3009E3178268B315D302000BE0020
:101910000230BF0070083E07860071083F3D870017
:101920000108C0004408C1000230C135FF3E031D5C
:10193000952C4135253E86008701400881004408EA
:10194000BC000230BC35FF3E031DA22C3C35243EBA
:101950008600870181010130BC003C08C4070230C9
:101960004402031CD82B3D000E1308003D000E1747
:101970002300EE01D8015808D000D1015008210001
:10198000AD00230051082100AE000730AF00003049
:10199000B0009E31C9268C315E302300D200023067
:1019A000D30021002D0823005207D40021002E0867
:1019B0002300533DD50054088600550887000430A5
:1019C00081000130D0005008D80702305802031CB3
:1019D000BB2C20302100AD000030AE000030AF0045
:1019E000B0001030B1000030B2008731E7278C31F1
:1019F00023006B082100B40023006A082100B30013
:101A000092314E228C3134082000A300210033088B
:101A10002000A2000830A10080302300D000500830
:101A20002000A00023006D082100B40023006C08F2
:101A30002100B30092314E228C3134082000A700DF
:101A4000210033082000A60008302300D0005008F1
:101A50002000A500A4012300D801D80A5808D0000E
:101A6000D10150082100AD00230051082100AE0033
:101A70000730AF000030B0009E31C9268C3158309D
:101A80002300D2000230D30021002D08230052078A
:101A9000860021002E082300533D8700403FD600DA
:101AA000413FD70057082100B40023005608210009
:101AB000B30092314E228C3123005808D0000230FE
:101AC000D035FF3E031D602D5035223E8600870134
:101AD00021003308C03F3408C13F23005808D0001C
:101AE000D10150082100AD00230051082100AE00B3
:101AF0000730AF000030B0009E31C9268C315C3019
:101B00002300D2000230D30021002D082300520709
:101B1000860021002E082300533D87000108D400D1
:101B20005808D5000230D535FF3E031D932D55359D
:101B3000213E86008701540881008830D000580873
:101B4000D1000230D135FF3E031DA22D5135203E7C
:101B500086008701500881005808D000D101500844
:101B60002100AD00230051082100AE000730AF0076
:101B70000030B0009E31C9268C315A302300D2008B
:101B80000230D30021002D082300520786002100D7
:101B90002E082300533D8700403FD600413FD70029
:101BA00057082100B400230056082100B3009231E9
:101BB0004E228C3123005808D0000230D035FF3E31
:101BC000031DDE2D5035263E860087012100330897
:101BD000C03F3408C13F23005808D000D10150084D
:101BE0002100AD00230051082100AE000730AF00F6
:101BF0000030B0009E31C9268C315D302300D20008
:101C00000230D30021002D08230052078600210056
:101C10002E082300533D87000108D4005808D50042
:101C20000230D535FF3E031D112E5535253E860069
:101C30008701540881005808D0000230D035FF3E9B
:101C4000031D1E2E5035243E860087018101013080
:101C5000D0005008D80702305802031C2E2D3D003A
:101C60000E1308004808860049088700443101081F
:101C7000CA004A08EA00480886004908870041313E
:101C800006300106031D182F480886004908870002
:101C900081300106031D182F480886004908870077
:101CA0004231403FCA00413FCB004B08CC004C08BA
:101CB000E000FF30E600FF30E70021306006031D42
:101CC0006D2E6830CA004A08F0006A089D31FE2572
:101CD0008E317108E70070087C2E22306006031DEB
:101CE0007D2E6830CA004A08F0006A089D31CB2575
:101CF0008E317108E7007008E600E71F812EFF3083
:101D0000080048088600490887004631403FCA005D
:101D1000413FCB004B086702031D902E4A08660224
:101D2000031C9C2E48088600490887004631403F26
:101D3000CF00413FD000A02E6708D0006608CF003A
:101D40006908C1006808C0005008C3004F08C200FD
:101D5000D92F4808860049088700A1300106031DD5
:101D6000202F48088600490887004231403FCA00BA
:101D7000413FCB004B08CC004C08D30048088600FC
:101D80004908870042310108CA004A08D4005308B4
:101D9000CA004A08F0005408CB004B08F10062303A
:101DA000CC004C08F2005E30CD004D08F3006330EB
:101DB000CE004E08F4006A089E3132268E3171083A
:101DC000E5007008E400E51B7F2E480886004908FE
:101DD00087004631403FCA00413FCB004B086502B7
:101DE000031DF42E4A086402031C002F48088600D5
:101DF000490887004631403FD100413FD200042FBF
:101E00006508D2006408D1006208C0000230C10039
:101E10005208C3005108C2005F08C5005E08C40034
:101E20006308CA004A08C6009E31E4260030080054
:101E30004808860049088700413101030319A92E8B
:101E40004808860049088700413109300106031D12
:101E5000572F480886004908870021300106031DD6
:101E6000572F48088600490887004231403FCA0082
:101E7000413FCB004B08CC004C08D50048088600F9
:101E80004908870042310108CA004A08D6005508AF
:101E9000CA004A08F0005608CB004B08F1006A0857
:101EA0009D315525CC004C08D7005708080048083C
:101EB000860049088700413102300106031D802F4A
:101EC0004808860049088700A1300106031D802FBD
:101ED000480886004908870042310108CA004A08BC
:101EE000D8005808CA004A08F0006A089D314D25FC
:101EF0008E31CB004B08D9005930C0000030D42FB0
:101F0000480886004908870041310A300106031D50
:101F1000B72F480886004908870021300106031DB5
:101F2000B72F48088600490887004231403FCA0061
:101F3000413FCB004B08CC004C08DA004808860033
:101F40004908870042310108CA004A08DB005B08E3
:101F5000CA004A08F0005A08CB004B08F1006A0892
:101F60009D315125CC004C08DC005C080800480875
:101F7000860049088700413103300106031DDE2F2A
:101F80004808860049088700A1300106031DDE2F9E
:101F90006A089D314F258E31CA004A08E100E11BD5
:101FA0007F2E6130C0000030C1000130C20000301F
:101FB000C3000030C400C500C601142F48088600C5
:101FC0004908870041310B300106031D7F2E480868
:101FD00086004908870021300106031D7F2E48082E
:101FE00086004908870042310108CA004A08F0000B
:101FF0006A089D315325CB004B08DD005D080800C1
:1020000096149D319B2508002100B300330823005E
:10201000C000C10140082100AD002300410821009B
:10202000AE000730AF000030B0009E31C9265E30F0
:102030002300C2000230C30021002D082300420704
:10204000860021002E082300433D87000108023945
:102050000800FD007D080319080002307D02031806
:1020600008007D08B000B1013008F0003108F1002F
:102070000730F2000030F3009E31782690315E3058
:102080002000B2000230B3007008320786007108E9
:10209000333D870081147D089131312108002100F2
:1020A000B30033082300C000C10140082100AD0087
:1020B000230041082100AE000730AF000030B0001F
:1020C0009E31C9265A302300C2000230C3002100CD
:1020D0002D0823004207860021002E082300433DDF
:1020E0008700403F2100A600413FA70008000030C4
:1020F0009E3193269031003A031D08002300EE1D07
:102100008328013084280030FD007D082000B000C5
:10211000A4013008031992287B08FD007D08A50062
:10212000C83097287B08FD007D08A5008830FD0099
:102130007D08A4000830FD007D082300EE0608009D
:10214000B40034082300C000C10140082100AD00E4
:10215000230041082100AE000730AF000030B0007E
:102160009E31C92658302300C2000230C30021002E
:102170002D0823004207860021002E082300433D3E
:10218000870021003308840002308500403F803FF3
:10219000413F813F20308600003087000800210049
:1021A000B5012300CB1FDC28CA09CB09CA0A0319D1
:1021B000CB0A2100B501B50A23004A082100AD0071
:1021C00023004B082100AE00AF018E302300CD006C
:1021D0004D082100B00035082300CE004E08210034
:1021E000B10093316A232D082300CA0021002E0874
:1021F0002300CB0021002F082300CC000800F300AF
:102200007308031D0F29700886008701B130C03F95
:102210009830C13F0430F0000030F1000800730333
:10222000031D26297008860087017530C03F98304D
:10223000C13F21297008860087015D30C03F98307A
:10224000C13F1830F0000030F10008000230730682
:1022500003191A2903307306FF30F000FF30F10034
:102260000800FC007C08F600F7017608F00077080B
:10227000F1000730F2000030F3009E3178269131F2
:102280005D30F8000230F9007008780786007108A8
:10229000793D87000108FA007C08FB000230FB351D
:1022A000FF3E031D4F297B35253E860087017A08B6
:1022B00081008430F6007C08F7000230F735FF3EDD
:1022C000031D5E297735243E86008701760881004C
:1022D00008002300C0009D316825913180309D3178
:1022E000A3259131230040089D31A32591319031E0
:1022F0000020913181309D31A325913101309F31F2
:102300001E279131B200B3013208B300B201320886
:102310002300C100210033082300C20001309F3197
:102320001E279131B200B30132082300C1042100FD
:1023300033082300C2049D316D252300420821008B
:10234000B100230041082100B00008007708FB001D
:102350007608FA0020307B02003003197A02031C51
:10236000B6297B08F7007A08F60008007B082000F1
:10237000B0003008F8007A08B0003008F900790899
:102380007F39B000B10179088039B200B301780813
:10239000B400B501B435B50D32083407B6003308C2
:1023A000353DB700360837040319D8290130D9293B
:1023B0000030B800B9013808F0003908F100503099
:1023C000F2000030F3009E317826200030087007BC
:1023D000BA003108713DBB003A08E03EF6001F30FC
:1023E0003B3DF700080023006B082100A2002300FA
:1023F0006A082100A1002108860022088700003019
:10240000811B0130BC009D3184259131A41F0D2A10
:102410000830ED006D08A500A4012100360837043E
:102420000319252A3A083B040319222AF0013D0822
:102430002000ED006D08F10021003B088A003A08F9
:102440000A0092319D31B52591312108860022087C
:102450008700010E890C0339003A031D382A8231A6
:1024600049229131ED006D082100A000A01F4B2AE8
:1024700022082000EC00210021082000EB009D3103
:102480007D2591312000ED006D082100A000A01FE6
:102490004B2A9D31AB253D000E1208003408230065
:1024A000CF00210033082300CE0020304F0200303F
:1024B00003194E02031C642A4F082100B4002300B4
:1024C0004E082100B30008004F08C0004008CC00AF
:1024D0004E08C0004008CD004D087F39C000C10142
:1024E0004D088039C200C3014C08C400C501C43581
:1024F000C50D42084407C6004308453DC7004608CD
:1025000047040319852A0130862A0030C800C90112
:1025100048082100AD00230049082100AE005030DA
:10252000AF000030B0009E31C926230040082100D2
:102530002D072300CA00410821002E3D2300CB00B7
:102540004A08E03E2100B3001F3023004B3D21002C
:10255000B400080011109110920197018E15111608
:1025600011159011901190119011900192159216E1
:10257000121412179830F0000E30F1000030F20003
:10258000F3001030F4000030F5009E3160269231E7
:102590003D00181698111815981418102000C50140
:1025A000C50A4508983EFC00FD010E30FD3D7C0843
:1025B000C6007D08C7004608860047088700011648
:1025C00046088600470887008115460886004708A8
:1025D00087000115460886004708870081144608D1
:1025E00086004708870001100130FC007C08C50701
:1025F00002304502031CD12A3D0096012300EF0161
:102600002000EF018B31762392319D31B5251215D3
:1026100008003D0011109110920197018E151116BE
:102620001115901190119011901190019215921620
:102630001214121798302100AD000E30AE00003099
:10264000AF00B0001030B1000030B2008731E72792
:1026500093313D001816981118159814181023007E
:10266000DB01DB0A5B08983ED900DA010E30DA3D67
:102670005908DC005A08DD005C0886005D08870008
:1026800001165C0886005D08870081155C088600DD
:102690005D08870001155C0886005D0887008114CD
:1026A0005C0886005D08870001100130D9005908D8
:1026B000DB0702305B02031C322B3D009601230036
:1026C000EF012000EF018C31B62493319D31C025FC
:1026D0001215080030080319722B2F082E042D0440
:1026E000031D832B0030AD000030AE000030AF0082
:1026F00008000130B2003208B0070130AF36AE0C2E
:10270000AD0C890B7E2BFE302F0503199C2B792BEA
:102710000130B2003208B0070130AD0700300318B5
:102720000130AE07003003180130AF070130AF367B
:10273000AE0CAD0C890B972BFF302F050319AD2B79
:10274000882B02303002031CAF2B0130B002013065
:10275000AD35AE0DAF0D890BA82BAE1FA12B3018D8
:10276000B72BFF30AD057F30AE05FF30AF0503104E
:10277000B00C3008B200B301B4011030B235B30D63
:10278000B40D890BBE2B3208AD043308AE043408F7
:10279000AF04310803190800AF1708002300CA006E
:1027A00020006F080319080023004A089031042014
:1027B0009331003A031D08004A08C4000230C435B2
:1027C000FF3E031DDF2B4435243EC5004508CB00EA
:1027D0004A08C400C50144082100AD002300450893
:1027E0002100AE000730AF000030B0009E31C92696
:1027F00093315E302300C6000230C70021002D084F
:1028000023004607860021002E082300473D87004D
:10281000811D0C2C01300D2C0030C8004808C90067
:102820004B0886008701810149080319222C2100E9
:1028300034082300C4004B0A860087014408810045
:10284000C8302C2C210034082300C4004B0A860019
:102850008701440881008830C4004B088600870146
:10286000440881000830C4004A08C500C601450874
:102870002100AD00230046082100AE000730AF0064
:102880000030B0009E31C9265E302300C700023000
:10289000C80021002D0823004707860021002E08CC
:1028A0002300483D870044088106080000303402B8
:1028B000083003193302031C622C0830B9000030C1
:1028C000BA00662C3408BA003308B9003908B700DA
:1028D0003708BF003F08B700B80136083802031DAB
:1028E000732C35083702031C7A2C3608BC003508D7
:1028F000BB00812C3F08B700B8013708BB0038087F
:10290000BC003B08B7003708BF0036083402031D7F
:102910008B2C3508330203188F2C0130902C00309B
:10292000B70037082100BE0020003F080319AB2C78
:1029300023006C0886006D088700200031088400A1
:10294000320885003F08B70037080319AB2C120086
:102950001E00B70BA72C20003F08B700B8013708AE
:1029600031072100B80020003808323D2100B900AD
:10297000200034083602031DBF2C33083502031C27
:10298000C52C3408BE003308C82C3608BE003508F4
:10299000BD003F08B700B80137083D022100B6006E
:1029A000200038083E3B2100B7002300EE15200030
:1029B0003F08B700B8013708FB003808FC00903129
:1029C0007720080023006F080319EC2C2100400831
:1029D0003D0096002300EF0121003608370403195B
:1029E0004D2D00303702083003193602031CFE2C2F
:1029F00008302000B3000030B400052D3708200057
:102A0000B400210036082000B3003308B1003108BB
:102A1000B50023006C0886006D0887002100380887
:102A200084003908850020003508B10031080319F9
:102A30001D2D12001E00B10B192D20003508B1000C
:102A4000B20131082100B602200032082100B73B54
:102A500020003508B100B20131082100B80720007C
:102A600032082100B93D36083704031D422D0830D5
:102A700020003506031D422D21003E080319422D7A
:102A8000BF01BF0A20003508B100B2013108FB00C8
:102A90003208FC009031772008003F0803195B2DB5
:102AA0000030FB00FC009031772094312100BF0101
:102AB0009D31B52508003C08031D08003A083B0479
:102AC0000319582DF001F00A3D082000B10031082B
:102AD000F10021003B088A003A080A009531582D80
:102AE00020002108F2007208F70021003C03031DBA
:102AF0008B2D3A083B040319882DF001F00A3D089C
:102B0000F2007208F1003B088A003A080A00953189
:102B10009D31B525080020006E08031908007708CC
:102B2000F200F301210037087302031D992D3608C6
:102B30007202031CA02D3708F5003608F400A72DFB
:102B40007708F200F3017208F4007308F5007408C6
:102B5000F2007208F80020006E088600870123004A
:102B60006A0884006B0885007808F200720803196F
:102B7000BD2D12001E00F20BB92D7808F20072086C
:102B80002000EE077808F200F30172082100B60277
:102B90007308B73B08307702031CD22D3608370480
:102BA000031D0800770878020318E92D9D31AB2535
:102BB000953121003A083B040319882DF0013D08A6
:102BC000F2007208F1003B088A003A080A009531C9
:102BD000882DF6013A083B040319FC2DF001F00A98
:102BE0003D08F2007208F1003B088A003A080A002A
:102BF0009531F3007308F600F61F022E9D31AB25C8
:102C00009531042E9D318B252100BA01BB010800AE
:102C10004F08D5005008D6005108D7000310560DB4
:102C2000570DD8005808D9005908031D1E2E003032
:102C3000CF000030D0000030D10008005208D5008D
:102C40005308D6005408D7000310560D570DD8006E
:102C50005808DE005E08031D342E0030CF0000301F
:102C6000D0000030D10008005E087B3ED50055083A
:102C7000D9075108D5005508DE005408D50055087D
:102C8000DE068030D5005508DE05D017D317FF309B
:102C9000D205FF30D3050030D4050030DA00003013
:102CA000DB000030DC000730D5005508DD004F1C8C
:102CB0005F2E5208DA075308DB3D5408DC3D013033
:102CC000D136D00CCF0C890B602E0130D235D30D0C
:102CD000D40D890B662E0130DD02031D572E0930FD
:102CE000D5005508DD004F1C7B2E5208DA0753082B
:102CF000DB3D5408DC3D0130D136D00CCF0C890BC4
:102D00007C2E0130DC36DB0CDA0C890B822E013094
:102D1000DD02031D732E5A082100AD0023005B085D
:102D20002100AE0023005C082100AF0023005908F9
:102D3000D50055082100B00023005E08D6005608D3
:102D40002100B10093316A232D082300CF00210018
:102D50002E082300D00021002F082300D1000800F6
:102D600003309F313C27963144082400A7002300FC
:102D700043082400A6002708803A2300E900853094
:102D80006902031DC62ED830240026020318172F0F
:102D900024002708803A2300E9007A306902031DE5
:102DA000D42E293024002602031C172F2400520899
:102DB0002300DF00240053082300E000240054080F
:102DC0002300E100240055082300CF00240056080A
:102DD0002300D000240057082300D10001309F3188
:102DE0003C2796314408CB004308CA009031CF20DD
:102DF00096314A08D2004B08D3004C08D4009631D3
:102E0000082696314F08E2005008E3005108E4001C
:102E10008A314E2223005F082400A30023006008AB
:102E20002400A400230061082400A5000800240059
:102E30004C082300DF0024004D082300E00024009C
:102E40004E082300E10024004F082300CF00240097
:102E500050082300D000240051082300D100240092
:102E600027082300CB00240026082300CA00903145
:102E7000CF2096314A08D2004B08D3004C08D4002A
:102E80009631082696314F08E2005008E3005108B9
:102E9000E4008A314E2223005F082400A3002300AF
:102EA00060082400A400230061082400A500080095
:102EB00005309F313C27973144082400A7002300A8
:102EC00043082400A6002708803A2300E9008F3039
:102ED0006902031D6E2FF030240026020318BF2F55
:102EE00024002708803A2300E90070306902031D9E
:102EF0007C2F113024002602031CBF2F240046081B
:102F00002300DF00240047082300E00024004808D5
:102F10002300E100240049082300CF0024004A08D0
:102F20002300D00024004B082300D10024002708F0
:102F30002300CB00240026082300CA009031CF20B4
:102F400097314A08D2004B08D3004C08D400963180
:102F5000082697314F08E2005008E3005108E400CA
:102F60008A314E2223005F082400A300230060085A
:102F70002400A400230061082400A5000800240008
:102F800040082300DF00240041082300E000240063
:102F900042082300E100240043082300CF0024005E
:102FA00044082300D000240045082300D100063047
:102FB0009F313C2797314408CB004308CA00903129
:102FC000CF2097314A08D2004B08D3004C08D400D8
:102FD0009631082697314F08E2005008E300510867
:102FE000E4008A314E2223005F082400A30023005E
:102FF00060082400A400230061082400A500080044
:10300000093402342934003401340134003480346A
:1030100032340934043400340034023403340034CC
:1030200000340034093421340134013400340134D3
:1030300022341C34003407340534813403344034E2
:10304000003401340734053401340334403400348F
:10305000013406340034FF3409340134A13401341E
:1030600019340134293440341534013425344034C2
:1030700075340834953440348134003419340134C3
:103080002934403491340034C03418340334493482
:1030900000346E34003474340034653400347234D7
:1030A00000346634003461340034633400346534F1
:1030B00000342034003431340034183403344C34B8
:1030C0000034753400346B3400346534003400341B
:1030D0000034003400340034003400340034003450
:1030E00000340034003400340034183403347434B1
:1030F00000346F3400346F3400346C340034623484
:10310000003469340034743400342E3400346F34A5
:103110000034723400346734003412340134003423
:1031200002340034003400340834D8340434C03459
:103130000E340334003401340234003401344C348E
:1031400075346B34653400344C3475346B34653409
:10315000003430342E343134003430342E343134B1
:1031600000340434033409340434003400340034AB
:0A3170000034013400340034003450
:103A8E000800080008000800003008000030080098
:103A9E0001300800FF300800FF300800FF3008003A
:103AAE00003008000030080000349834F001F101B5
:103ABE00080020006F080800FF30F000FF30F10012
:103ACE000800240016149D319B25080024001615AD
:103ADE009D319B25080080342034883420340034F6
:103AEE0094011A3092002830950008006C08C90025
:103AFE006B08C8008E31322608000830F0007008BE
:103B0E002000A500A40108002000A401A501C830D2
:103B1E00F0007008A400080008302000A1008030DA
:103B2E00F0007008A0000800240016081F39031DBD
:103B3E009B2D141D08009B2D2100AD002D08240087
:103B4E0091009D319B2508000830F0007008200080
:103B5E00A5008430F0007008A40008002100B80110
:103B6E00B9012000EE012100B601B701BA01BB0177
:103B7E0008002100B801B9012000EE012100B601B4
:103B8E00B701BA01BB010800700886008701293011
:103B9E00C03F9830C13F1C30F0000030F1000800EB
:103BAE00FE0012001E000130FE020030FF3B7F08B7
:103BBE007E0403190034D82D05302100B1003108E0
:103BCE00AE00D830B2003208AF0009309E31AE26BA
:103BDE000800003400340034003400340034003463
:103BEE0090342034D03420344034403400341230F9
:103BFE00F3009830F4007008860087017308C03F08
:103C0E007408C13F0930F0000030F10008002100B7
:103C1E00AE002E08AD000230AD35FF3E031D132E53
:103C2E002D35243E86008701010D010D0139080056
:103C3E002100AE002E08AD000230AD35FF3E031D53
:103C4E00242E2D35203E860087010310811F03147C
:103C5E000030093D08006630F500720886008701C5
:103C6E00750881007308860087014B30C03F1D30F8
:103C7E00C13F74088600870181010330F0000030D7
:103C8E00F10008002E08B1002D08B00030088400A5
:103C9E003108850012000319592E0130B00700308B
:103CAE00B13D4D2E2D083002AD002E08313BAE0039
:103CBE0008007108F7007008F6000130F4020030B9
:103CCE00F53B740A0319750A031908007608860075
:103CDE0077088700720881000130F6070030F73D43
:103CEE00642EF401F501701C802E7208F40773081F
:103CFE00F53D0130F235F30D890B812E0130F13691
:103D0E00F00C890B862E70087104031D7A2E75082F
:103D1E00F1007408F0000800FA007A08F600F701C6
:103D2E007608F0007708F1000730F2000030F3005B
:103D3E009E3178265E30F8000230F9007008780760
:103D4E0086007108793D87000108023908002100BC
:103D5E00B0009D3168259E3180309D31A3259E3166
:103D6E00210030089D31A3259E3121002E089D3162
:103D7E00A3259E3121002F089D31A3259E319D3113
:103D8E006D250800B101B2012D1CD12E2F08B107EF
:103D9E003008B23D0130AF35B00D890BD22E013057
:103DAE00AE36AD0C890BD72E2D082E04031DCB2E4F
:103DBE003208AE003108AD00080045082100BB00F6
:103DCE00200044082100BA0020004608C70047081A
:103DDE002100BD0020004108B2004008B100430898
:103DEE00B4004208B3004308B6004208B50094314F
:103DFE0056240800F2007208F0000230F035FF3E43
:103E0E00031D052F7035213E860087018101843008
:103E1E00F0007208F1000230F135FF3E031D132F42
:103E2E007135203E86008701700881000800210050
:103E3E00AE00240096159D319B259F31110821005F
:103E4E00AD002D08AF009D319B259F3121002E081E
:103E5E000319342F24009612362F240096161616A8
:103E6E009D319B2521002F0808002300C70047081D
:103E7E009131692131082300C90021003008230047
:103E8E00C8004908C6004808C500460DC60CC50C3A
:103E9E00460DC60CC50C460DC60CC50C4508C30018
:103EAE004608C4000800FA007A0803190800023018
:103EBE007A02031808007A08F600F7017608F00077
:103ECE007708F1000730F2000030F3009E317826BB
:103EDE009F315E30F8000230F900700878078600D6
:103EEE007108793D870001147A089F310127080077
:103F0000C63427343834C6342734B83412348334B2
:103F10003A340034003400346A34C734BA34653477
:103F2000C734BC34CD349B343E3485347934C23408
:103FF0000134003400340034003400340034003420
:020000040001F9
:04000E00E4CFCFD795
:00000001FF
