:1004000000008231132A08007E14823120007F0808
:100410002100A5008531F425823121002508200026
:10042000FF007E1009008231152A2100C001C101A0
:10043000C201C301C401C501C601C701C80123002F
:10044000E101E201E301E401E501E601E701E80180
:100450002C30840094308500C03086000130870045
:100460000030FF0015308831002082317E102000DE
:100470008A31C92A2000C70123004F082000DB0071
:1004800023004E082000DA005A0886005B08870027
:10049000413106300106031D4E2A4F2A312B5A08DE
:1004A00086005B08870080300106031D582A592A00
:1004B000312B5A0886005B0887004231403FBD005F
:1004C000413FBE003E08BF003F08D7005A088600E3
:1004D0005B08870042310108BD003D08D800570382
:1004E000031D732A742A902A9530B0009030B10011
:1004F00095308400903085000008BD00BE013D08A5
:10050000B2003E08B3005A0886005B0887004631F7
:10051000403FB400413FB500893182218231F02D46
:10052000023020005706031D962A972ACB2A580826
:1005300003199B2A9C2AA02A9331C4238231F02DCF
:1005400020005835D33E860001308700403FCA0066
:10055000413FCB004B08B1004A08B0004B08BE0039
:100560004A08BD0002303D0784003E0803183E0AD9
:100570008500003FB200013FB3005A0886005B08C7
:1005800087004631403FB400413FB50089318221A8
:100590008231F02DF02D033020005706031DD12AA3
:1005A000D22AFE2A5530BD003D08F0005808963189
:1005B0003326823171082000CD007008CC00CD1F99
:1005C000E22AE32AE72A9331C4238231F02D200066
:1005D0005608B1005508B0004D08B3004C08B200F1
:1005E0005A0886005B0887004631403FB400413F0F
:1005F000B500893182218231F02DF02D20005B0879
:10060000F1005A08F0004930BD003D08F200933176
:100610007D23823171082000CF007008CE00CF1FEB
:10062000122B132B172B9331C4238231F02D200072
:100630004908B0000030B1004F08B3004E08B200C6
:100640005A0886005B0887004631403FB400413FAE
:10065000B500893182218231F02DF02DF02DF02D61
:10066000F02D20005A0886005B08870041310530D4
:100670000106031D3C2B3D2B4F2B2100C401C40A56
:1006800020005A0886005B08870042310108BD003F
:100690003D082300E30093318B238231F02D2000AD
:1006A0005A0886005B088700413109300106031DA6
:1006B0005A2B5B2B752B5A0886005B08870042314A
:1006C0000108BD003D08D00050088731FF27823166
:1006D0008B317723823193318B2382312000500874
:1006E000BD003D082100C800F02D20005A088600FA
:1006F0005B088700413108300106031D802B812BE8
:10070000962BC830B0000030B1000130B20000308C
:10071000B3005A0886005B0887004631403FB400AA
:10072000413FB500893182218231F02D20005A08E5
:1007300086005B08870041310108031DA02BA12B17
:10074000422C5A0886005B08870001081F39003ACE
:10075000031DAB2BAC2BC92B933175238231710850
:100760002000C1007008C0004030B0000030B1006F
:100770000230B2000030B3005A0886005B088700E0
:100780004631403FB400413FB5008931822182317A
:10079000F02D20005A0886005B08870001081F39E9
:1007A000023A031DD42BD52B3C2C5A0886005B083B
:1007B0008700443101080F39BD003D08D1000230E7
:1007C00051020318E42BE52B372C0730BD003D0800
:1007D000F000510894316F248231063EC03E8600FD
:1007E0000130870001082000BE003E08D2005A08F0
:1007F00086005B0887004431403FBD00413FBE009A
:10080000BD1B032C042C0D2C52080139BD00BE0168
:100810003D08C5003E08C600162C52080239BD002E
:10082000BE013D08C5003E08C600162C450846041A
:10083000031D1B2C1D2C01301E2C0030BD003D085B
:10084000C200C3014230B0000030B1000230B2003B
:100850000030B3005A0886005B0887004631403FED
:10086000B400413FB500893182218231F02D9331AE
:10087000C4238231F02DF02D9331C4238231F02D29
:10088000F02DF02D20005A0886005B0887004131CA
:100890000B300106031D4D2C4E2C712C5A0886007E
:1008A0005B08870042310108BD003D08F0005A088E
:1008B00086005B088700443101089331722382313E
:1008C0002000BE003E08C400C41F672C682C6C2C9E
:1008D0009331C4238231F02D93318B238231F02D5B
:1008E000F02D20005A0886005B08870041310A304D
:1008F0000106031D7C2C7D2CA92C5A0886005B0860
:1009000087004431010893316F2382312000BD00FC
:100910003D08D300D31F8D2C8E2C922C9331C423F1
:100920008231F02D53302000B0000030B100013092
:10093000B2000030B3005A0886005B0887004631D9
:10094000403FB400413FB500893182218231F02D12
:10095000F02D20005A0886005B0887004131010312
:100960000319B32CB42CBF2C5A0886005B088700EF
:10097000413103300106031DBE2CBF2CE62DC801FA
:10098000C80AC32CC32C5A0886005B0887000108DC
:100990001F39023A031DCD2CCE2CD82D5A088600C3
:1009A0005B088700423116000104031DD82CD92CA6
:1009B000D82D5A0886005B088700443101080F399A
:1009C000BD003D08D9005A0886005B088700443105
:1009D00001088039BD003D08D400023059020318D7
:1009E000F22CF32CD82D5A0886005B088700413181
:1009F00003300106031DFD2CFE2C0F2D5408031996
:100A0000022D032D082D590895311D258231B92D50
:100A10002000590895313F258231B92DB92D20008C
:100A200054080319142D152D682D162D0730BD00FF
:100A30003D08F000590894316F248231053EC03ED4
:100A400086000130870001082000BE005935BF0034
:100A50000130BF35FF3E031D292D3F35053E203EA9
:100A6000860087013E0881005935BD000130BD3543
:100A7000FF3E031D372D3D35043E203E8600870195
:100A80008101422DF730BD000730BE003E08F00066
:100A9000590894316F248231063EC03E86000130F1
:100AA000870020003D088105FD30BD000730BE00F5
:100AB0003E08F000590894316F248231063EC03E52
:100AC00086000130870020003D088105B92D682D82
:100AD0000730BD003D08F000590894316F24823181
:100AE000043EC03E86000130870001082000BE00A1
:100AF0005935BF000130BF35FF3E031D7B2D3F350B
:100B0000013E203E860087013E0881008830BD00FE
:100B10005935BE000130BE35FF3E031D8B2D3E35DD
:100B2000203E860087013D088100962D0730BD00DC
:100B30003D08F000590894316F248231063EC03ED2
:100B40008600013087000115FE302000BD0007300F
:100B5000BE003E08F000590894316F248231063EF1
:100B6000C03E86000130870020003D088105B92D78
:100B7000B92D20005A0886005B08870041310330F8
:100B800001060319C42DC62D0130C72D0030BD004C
:100B90003D08F0005A0886005B08870044310108D0
:100BA0008231032282312000C801D82DD82DD82DC2
:100BB0004808031DDC2DDD2DE12D93318B2382317F
:100BC000F02D9331C4238231F02DF02DC701C703DE
:100BD000F02DF02DF02DF02DF02DF02DF02DF02D2D
:100BE00020004708F32D08003D00101CF82DF92DBA
:100BF000022E93315C2385319731252785313D00C5
:100C00001010022E901E052E062E4C2E01302100B3
:100C1000A3000030A4002408803A2000EC008030BB
:100C20006C02031D162E023021002302031C192E14
:100C30001A2E1C2E4A2E4A2E98302000EC000E3020
:100C4000ED002100230820006C07EE00210024089D
:100C500020006D3DEF006E082100A00020006F080D
:100C60002100A10020088600210887000110013022
:100C7000A3070030A43D2408803A2000EC00803017
:100C80006C02031D462E023021002302031C492E54
:100C90004A2E1C2E3D009012901D4F2E502E282FB4
:100CA000921D532E542E282F0F0C2000EC00EC0C1C
:100CB0006C0C0F39003A031D5E2E5F2E912E3D0005
:100CC0000F19632E642E912E2000200C890C0F39F1
:100CD000EC006C082100A2000D302206031D712ECD
:100CE000722E762E88310C2085318D2E0930210010
:100CF0002206031D7C2E7D2E7F2E8D2E8D2E22030F
:100D0000031D832E842E882E87313A2785318D2E20
:100D10009331C42385318D2E8D2E933194238531CB
:100D2000262F3D000F0C2000EC00EC0C6C0C0F3952
:100D3000003A031D9C2E9D2EA62E3D000F1DA12EB8
:100D4000A22EA62E8A3121228531262F3D000F0C9E
:100D50002000EC00EC0C6C0C0F39003A0319B12E9A
:100D6000B22E262F3D000F0C2000EC00EC0C6C0C7A
:100D70000F39ED0002306D020318BF2EC02E262F52
:100D80003D000F1DC42EC52EF42E07302000EC00B0
:100D90006C08F0003D000F0C2000ED00ED0C6D0C18
:100DA0000F3994316F248531063EC03E86000130F4
:100DB0008700811CDC2EDD2EE82E3D000F0C20006C
:100DC000EC00EC0C6C0C0F399531CC258531262FBD
:100DD0003D000F0C2000EC00EC0C6C0C0F39933133
:100DE00059238531262F262F07302000EC006C0870
:100DF000F0003D000F0C2000ED00ED0C6D0C0F39E4
:100E000094316F248531063EC03E86000130870054
:100E1000011C0B2F0C2F172F3D000F0C2000EC0096
:100E2000EC0C6C0C0F399431DF248531262F3D00FA
:100E30000F0C2000EC00EC0C6C0C0F3993315A2392
:100E40008531262F262F262F262F262F3D00901165
:100E5000101F2B2F2C2F322F93315B2385313D0018
:100E60001013322F2000121D362F372F392F121159
:100E7000392F080020002108F2007208F700210035
:100E80004603031D442F452F5B2F420843040319DB
:100E90004A2F4B2F572FF001F00A4508F200720835
:100EA000F10043088A0042080A008731572F933126
:100EB000A6238731F12F210047080319602F612FE6
:100EC000F12F7708F200F30141087302031D6A2F26
:100ED00040087202031C6D2F6E2F732F4108F5001E
:100EE0004008F4007A2F7708F200F3017208F4004A
:100EF0007308F5007408F2007208F80047088600CD
:100F000087018E2F23004E0884004F088500780843
:100F1000F20012001E00F20B892F8F2F822F78080B
:100F2000F20072082100C7077808F200F301720886
:100F3000C0027308C13B08307702031CA02FA12F09
:100F4000A82F40084104031DA62FA72FF12FA82F7B
:100F5000770878020318AD2FAE2FC72F9331C42323
:100F600087312100420843040319B72FB82FC32F3C
:100F7000F0014508F2007208F10043088A004208B7
:100F80000A008731C32F9331A6238731F12FF60151
:100F90002100420843040319CE2FCF2FDE2FF0018A
:100FA000F00A4508F2007208F10043088A0042087E
:100FB0000A008731F3007308F600DE2FF61FE12FD9
:100FC000E22FE62F9331C4238731EA2F93318B230D
:100FD0008731EA2F2100C201C301F12FF12FF12F38
:100FE000F12F08007008860087016130C03F903003
:100FF000C13F1C30F0000030F100FE2F0800080057
:10100000FE0012001E000130FE020030FF3B7F0890
:101010007E04031D0128003423004F082000EB004C
:1010200023004E082000EA006A0886006B0887004B
:101030000030811B01302100C600933183238831A9
:101040002000A41F242825282D2826280830FD004C
:101050007D08A500A4012D282D2821004008410469
:10106000031933283428492842084304031939282E
:101070003A284528F0014508FD007D08F1004308A5
:101080008A0042080A00883145289331A623883116
:10109000492820006A0886006B088700010E890C29
:1010A0000339003A031D55285628662882313A2212
:1010B0008831FD007D082000E900E91F60286128D3
:1010C0007A28662866287A2866287A286B08E80035
:1010D0006A08E7009331B0238831FD007D082000C5
:1010E000E900E91F742875287A289331C4238831D0
:1010F0007A287A283D000E1208002100B100480825
:10110000031983288428F028310894310524883174
:10111000003A031D8C288D28F02821003135AE00BF
:101120000130AE35FF3E031D91282E35043E203E92
:10113000AF002F08B2000730AE002E08A60031081D
:10114000943188248831063EC03E860001308700F5
:101150008119AB28AD280130AE2800302100AF0046
:101160002F08B0003208860087018101300803197A
:10117000BA28BB28CD28BC282C08AE00320A86002D
:1011800087012E088100C830AE0032088600870132
:101190002E088100DD28DD28CD282C08AE00320A7B
:1011A000860087012E0881008830AE003208860054
:1011B00087012E088100DD28DD280830AE000730C9
:1011C000AF002F08A6003108943188248831063EEC
:1011D000C03E86000130870021002E088106F028DD
:1011E00008002100AE000730AA002A08A6002E0839
:1011F000943188248831063EC03E86000130870045
:101200000119032905290130062900302100AB000E
:101210002B08AD002D0803190E290F29402910298C
:101220000730AA002A08A6002E08943188248831A5
:10123000043EC03E86000130870001082100AB005B
:101240002E35AC000130AC35FF3E031D23292C3573
:10125000013E203E860087012B088100C830AA008D
:101260002E35AB000130AB35FF3E031D33292B3546
:10127000203E860087012A0881006F296F294029B6
:101280000730AA002A08A6002E0894318824883145
:10129000043EC03E86000130870001082100AB00FB
:1012A0002E35AC000130AC35FF3E031D53292C35E3
:1012B000013E203E860087012B0881008830AA006D
:1012C0002E35AB000130AB35FF3E031D63292B35B6
:1012D000203E860087012A0881006F296F2904308B
:1012E000AA000730AB002B08A6002E0894318824F2
:1012F0008831063EC03E86000130870021002A0862
:101300008106080000302000330208300319320241
:10131000031C8B298C2991290830B6000030B700B6
:1013200095293308B7003208B6003608FA007A0863
:10133000BC003C08FA00FB0135087B02031DA22912
:1013400034087A02031CA529A629AB293508B9005F
:101350003408B800B2293C08FA00FB017A08B8004A
:101360007B08B9003808FA007A08BC003508330257
:10137000031DBC2934083202031CBF29C1290130D6
:10138000C2290030FA007A082300E50020003C085A
:101390000319CB29CC29E0292300500886005108E5
:1013A0008700DE29200030088400310885003C08D1
:1013B000FA0012001E00FA0BD929DF29D229E029F0
:1013C00020003C08FA00FB017A0830072300E10006
:1013D0007B082000313D2300E20020003308350265
:1013E000031DF42932083402031CF729F829FD29CA
:1013F0003308BB003208BA00022A3508BB003408A3
:10140000BA00022A3C08FA00FB01FA09FB09FA0AB1
:101410000319FB0A3A087A072100C00020003B08A4
:101420007B3D2100C1002300D21520003C08FA00BA
:10143000FB017A08F6007B08F7009531FC2589311D
:101440000800210044080319262A272A2E2A2300EF
:1014500063083D0096002100C4012E2A4008410483
:101460000319332A342A982A00304102083003191C
:101470004002031C3C2A3D2A432A08302000B000C9
:101480000030B1004B2A210041082000B1002100AA
:1014900040082000B0003008FA007A08B2002300AB
:1014A0005008860051088700622A230061088400E2
:1014B0006208850020003208FA0012001E00FA0BB4
:1014C0005D2A632A552A20003208FA00FB017A08B7
:1014D0002100C0027B08C13B20003208FA00FB015A
:1014E0007A082300E1077B08E23D2100400841041F
:1014F000031D7B2A7C2A8C2A083020003206031D1B
:10150000822A832A8C2A230065080319882A892ABB
:101510008C2AE401E40A8C2A20003208FA00FB013C
:101520007A08F6007B08F7009531FC258A31C82A35
:101530002300640803199D2A9E2AAA2A0030F60077
:10154000F7009531FC258A312300E4019331A6236D
:101550008A31C82A21004608031DAF2AB02AC82AAA
:10156000420843040319B52AB62AC22AF001F00A38
:101570004508FA007A08F10043088A0042080A0088
:101580008A31C22A9331A6238A31C82AC82AC82A96
:10159000080093319D238A31973192278A31D02ACE
:1015A000933179238A31003A0319D72AD82AD02ACD
:1015B0000130943118248A31003A0319E02AE12AD3
:1015C000D02A0130943141248A3121002B08230094
:1015D000E00021002A082300DF00013094310524B7
:1015E0008A31003A031DF52AF62A6E2BF92AF92AC8
:1015F000F92A01309331F2238A31003A031D012B7D
:10160000022BF92A032BDD302300DA005A082100CF
:10161000AA0001309531A6258A312300DB005B0842
:10162000DC005D0886005E0887000108DA005F08BC
:101630008600600887005A0881005F08013EDA00D2
:101640000030603DDB005A0886005B08870061308F
:1016500081005F08023EDA000030603DDB005A087E
:1016600086005B088700623081005F08033EDA0075
:101670000030603DDB005A0886005B08870063305D
:1016800081005F08860060088700443181010130D5
:10169000943141248A3121002A0886002B088700D2
:1016A0005D2B23005F088400600885004030DA006D
:1016B00012001E00DA0B582B5E2B512B23005C0806
:1016C000DA00DB015A082100AC0023005B0821008E
:1016D000AD00013088317D208A316E2B0130883198
:1016E000F1208A31D02AD02AD02A8231132A3D0013
:1016F0000E172300D201FC0102307C02031C812B57
:10170000822B842BA22BA22B04302000BA0007309E
:10171000BB003B08F0007C0894316F248B31063EFF
:10172000C03E86000130870020003A088100013069
:10173000BA003A08FC0702307C02031CA02BA12B44
:10174000842BA22B2030F0000030F1000030F2009A
:10175000F3001030F4000030F5009431A2248B31F6
:1017600023004F08F7004E08F600963183268B3190
:1017700077082000A3007608A200BE2B0830A10045
:101780008030BA003A08A000C52B23005108F700AA
:101790005008F600963183268B3177082000A70089
:1017A0007608A600D32B0830BA003A08A500A40199
:1017B000D92BFC01FC0A02307C02031CE02BE12B3C
:1017C000E32B912C912C0730BA003A08F0007C08EA
:1017D00094316F248B31C03E860001308700403F3A
:1017E000F600413FF700963183268B317C3520008F
:1017F000BB000130BB35FF3E031DFA2B3B35023EDB
:10180000203E860087017608C03F7708C13F073039
:10181000BA003A08F0007C0894316F248B31043E02
:10182000C03E86000130870001082000BB007C35E7
:10183000BC000130BC35FF3E031D1A2C3C35013E77
:10184000203E860087013B0881008830BA007C3545
:10185000BB000130BB35FF3E031D2A2C3B35203E2B
:10186000860087013A088100352C0730BA003A0813
:10187000F0007C0894316F248B31023EC03E86001C
:1018800001308700403FF600413FF7009631832644
:101890008B317C352000BB000130BB35FF3E031D82
:1018A0004D2C3B35063E203E860087017608C03F22
:1018B0007708C13F5B2C0730BA003A08F0007C087B
:1018C00094316F248B31053EC03E86000130870085
:1018D00001082000BB007C35BC000130BC35FF3E58
:1018E000031D6E2C3C35053E203E860087013B08DB
:1018F00081007C35BA000130BA35FF3E031D7C2CD7
:101900003A35043E203E860087018101872C013054
:10191000BA003A08FC0702307C02031C902C912C80
:10192000E32B3D000E1308003D000E172300D201EB
:101930002100BF0102303F02031C9F2CA02CA22CCF
:10194000BF2CBF2C0430BC000730BD003D08A600F2
:101950003F08943188248C31063EC03E8600013019
:10196000870021003C0881000130BC003C08BF0713
:1019700002303F02031CBD2CBE2CA22CBF2C2030F9
:10198000A6000030A7000030A800A9001030AA006F
:101990000030AB009431FE248C3123004F0821002D
:1019A000AD0023004E082100AC009631D4268C31C6
:1019B00021002D082000A30021002C082000A200F7
:1019C000E12C0830A10080302100BC003C08200040
:1019D000A000EA2C230051082100AD00230050088C
:1019E0002100AC009631D4268C3121002D08200036
:1019F000A70021002C082000A600FE2C08302100A2
:101A0000BC003C082000A500A401062D2100BF0158
:101A1000BF0A02303F02031C0E2D0F2D112DC12DC8
:101A2000C12D0730BC003C08A6003F089431882433
:101A30008C31C03E860001308700403F2100AC0061
:101A4000413FAD009631D4268C3121003F35BD0099
:101A50000130BD35FF3E031D292D3D35023E203EA0
:101A6000860087012C08C03F2D08C13F0730BC000D
:101A70003C08A6003F08943188248C31043EC03EC7
:101A800086000130870001082100BD003F35BE00FF
:101A90000130BE35FF3E031D492D3E35013E203E3F
:101AA000860087013D0881008830BC003F35BD00BD
:101AB0000130BD35FF3E031D592D3D35203E8600CA
:101AC00087013C088100642D0730BC003C08A6005B
:101AD0003F08943188248C31023EC03E860001309C
:101AE0008700403F2100AC00413FAD009631D42635
:101AF0008C3121003F35BD000130BD35FF3E031D57
:101B00007D2D3D35063E203E860087012C08C03FD6
:101B10002D08C13F8B2D0730BC003C08A6003F08B4
:101B2000943188248C31053EC03E86000130870008
:101B300001082100BD003F35BE000130BE35FF3E2B
:101B4000031D9E2D3E35053E203E860087013D0843
:101B500081003F35BC000130BC35FF3E031DAC2D7C
:101B60003C35043E203E860087018101B72D0130BF
:101B7000BC003C08BF0702303F02031CC02DC12D32
:101B8000112D3D000E130800200044088600450872
:101B9000870044310108C6004608E6004408860074
:101BA00045088700413106300106031DD82DD92D87
:101BB000582E440886004508870081300106031D21
:101BC000E22DE32D582E4408860045088700423157
:101BD000403FC600413FC7004708C8004808DC0036
:101BE000FF30E400FF30E50021305C06031DF92DD5
:101BF000FA2D082E6230C6004608F00066089331C0
:101C0000CF238D3171082000E5007008E4001D2EFF
:101C100022305C06031D0D2E0E2E1D2E6230C600D6
:101C20004608F00066088731F2278D3171082000E0
:101C3000E5007008E4001D2E1D2EE51F202E212E2C
:101C4000242EFF30FF2FFF2F440886004508870011
:101C50004631403FC600413FC70047086502031DAB
:101C6000332E46086402031C362E372E412E4408BC
:101C70008600450887004631403FD600413FD700E7
:101C8000462E6508D7006408D600462E6308BE00BD
:101C90006208BD005708C0005608BF000030C100F0
:101CA000C200C3019431C0248D310030FF2FFF2FBB
:101CB000FF302000E000FF30E100440886004508C6
:101CC000870041310103031D662E672EE32E440871
:101CD000860045088700A1300106031D702E712E75
:101CE000E32E44088600450887004231403FC60085
:101CF000413FC7004708C8004808CB004408860099
:101D00004508870042310108C6004608CC004B0850
:101D1000C6004608F0004C08C7004708F1005E30D6
:101D2000C8004808F2005A30C9004908F3005F3083
:101D3000CA004A08F4006608943157248D317108AE
:101D40002000E1007008E000E11FA72EA82EAB2EB6
:101D5000FF30FF2FFF2F44088600450887004631DB
:101D6000403FC600413FC70047086102031DBA2E2D
:101D700046086002031CBD2EBE2EC82E44088600F5
:101D8000450887004631403FD800413FD900CD2E5D
:101D90006108D9006008D800CD2E5E08BD00013072
:101DA000BE005908C0005808BF005B08C2005A08AE
:101DB000C1005F08C6004608C3009431C0248D31BD
:101DC0000030FF2FFF2F20004408860045088700C1
:101DD000413109300106031DEE2EEF2E222F44085B
:101DE00086004508870021300106031DF82EF92ED4
:101DF000222F44088600450887004231403FC60034
:101E0000413FC7004708C8004808CD004408860085
:101E10004508870042310108C6004608CE004D083B
:101E2000C6004608F0004E08C7004708F1006608E3
:101E300093316C238D312000C8004808CF004F0833
:101E4000FF2FFF2F440886004508870041310230EC
:101E50000106031D2C2F2D2F5E2F440886004508F8
:101E60008700A1300106031D362F372F5E2F44084F
:101E700086004508870042310108C6004608D000A8
:101E80005008C6004608F0006608933160238D3183
:101E90002000C7004708D1005130BD000030BE000F
:101EA0000130BF000030C0000030C100C200C301DB
:101EB0009431C0248D310030FF2FFF2F20004408C3
:101EC00086004508870041310A300106031D692F4D
:101ED0006A2F9D2F4408860045088700213001069F
:101EE000031D732F742F9D2F44088600450887001B
:101EF0004231403FC600413FC7004708C80048087C
:101F0000D200440886004508870042310108C60017
:101F10004608D3005308C6004608F0005208C70020
:101F20004708F1006608933166238D312000C80010
:101F30004808D4005408FF2FFF2F440886004508A6
:101F40008700413103300106031DA72FA82FD32F8F
:101F50004408860045088700A1300106031DB12F03
:101F6000B22FD32F6608933163238D312000C60032
:101F70004608DD00DD1FBD2FBE2FC12FFF30FF2F14
:101F8000FF2F5D30BD000030BE000130BF000030CB
:101F9000C0000030C100C200C3019431C0248D31A3
:101FA0000030FF2FFF2F20004408860045088700DF
:101FB00041310B300106031DDE2FDF2FFD2F4408BA
:101FC00086004508870021300106031DE82FE92F10
:101FD000FD2F440886004508870042310108C600ED
:101FE0004608F0006608933169238D312000C70050
:101FF0004708D5005508FF2FFF2FFF30FF2F08009F
:1020000018340334493400346E34003474340034EA
:102010006534003472340034663400346134003482
:1020200063340034653400342034003431340034F7
:10203000093402342934003401340134003480344A
:1020400032340934043400340034023403340034AC
:1020500000340034093421340134013400340134B3
:1020600022341C34003407340534813403344034C2
:10207000003401340734053401340334403400346F
:1020800001342034033455340034533400344234A2
:10209000003420340034433400346F34003473345B
:1020A0000034743400346F3400346D340034203420
:1020B000003444340034653400346D3400346F34FB
:1020C000003406340034FF3409340134A1340134BF
:1020D0001934013429344034153401342534403462
:1020E0007534083495344034813400341934013463
:1020F0002934403491340034C034183403347434F7
:1021000000346F3400346F3400346C340034623483
:10211000003469340034743400342E3400346F34A5
:102120000034723400346734003412340134003423
:1021300002340034003400340834D83404343F34DA
:1021400000340334003401340234003401340434E4
:06215000033409340434DD
:1026B200080008000800080000305F2B0800003006
:1026C200622B08000130652B0800FF30682B0800E0
:1026D200FF306B2B0800FF306E2B08000030712B8F
:1026E20008000030742B0800F001F101782B08007B
:1026F200210048087C2B0800FF30F000FF30F10079
:10270200822B08000830F00070082000A500A40108
:102712008A2B08002000A401A501C830F00070082F
:10272200A400932B080008302000A1008030F000A4
:102732007008A0009C2B08003C302100990427005F
:102742001B169B170B178B1708002300E101E201F0
:102752002100C701C001C101C201C301080020005C
:102762006808C5006708C4008D31C4259331B92BB0
:1027720008002300E101E2012100C701C001C101FB
:10278200C201C30108000830F00070082000A50053
:102792008430F0007008A400CE2B08002A30F30029
:1027A2009030F4007008860087017308C03F7408F7
:1027B200C13F0930F0000030F100DF2B0800F500C6
:1027C2000730F4007408F000750894316F249331D7
:1027D200063EC03E86000130870001080239F12B17
:1027E20008002100A7002735A6000130A635FF3ECC
:1027F200031DF72B2635043E203E86008701010D7E
:10280200010D0139042C08002100AB000730AA0099
:102812002A08A6002B08943188249431063EC03E33
:1028220086000130870001080239172C08002100B8
:10283200A7002735A6000130A635FF3E031D1D2C3B
:102842002635203E860087010310811F03140030C5
:10285200093D2B2C080000340034003400340034CD
:102862000034003490342034D034203440344034A6
:1028720000348034203488342034003418349034C6
:102882002100AD000730AC002C08A6002D089431C1
:1028920088249431023EC03E860001308700403FCA
:1028A2002100AA00413FAB00562C0800E630F5009B
:1028B2007208860087017508810073088600870107
:1028C2005D30C03F1330C13F74088600870181012B
:1028D2000330F0000030F1006E2C0800F200F3012A
:1028E200722C721C752C762C7B2C7008F1007108EE
:1028F200F3077B2C0310F00D0310F20C7208031D7A
:10290200832C842C722C852C7308872C08002100C0
:10291200A900A8018C2C291C8F2C902C952C260800
:10292200A7002708A807952C0310A60D0310A90CD1
:102932002908031D9D2C9E2C8C2C9F2C2808A12C31
:1029420008007108F7007008F600B22C76088600BD
:1029520077088700720881000130F6070030F73DE2
:10296200B22C0130F4020030F53B740A031DBD2C79
:10297200750A031DBD2CBE2CA72CBF2C08002000FD
:1029820042082100C300200041082100C2002000AB
:102992004308FC007C082100C50020003E08B1006D
:1029A2003D08B0004008B3003F08B2004008B5003F
:1029B2003F08B4008931822194310800F200723557
:1029C200F0000130F035FF3E031DE32C7035013E6F
:1029D200203E8600870181018430F0007235F100CB
:1029E2000130F135FF3E031DF22C7135203E860089
:1029F200870170088100FD2C080021002708AD0026
:102A02002608AC000F2D2C0886002D088700280808
:102A120081000130AC070030AD3D0F2D0130AA021C
:102A22000030AB3B2A0A031D1A2D2B0A031D1A2D57
:102A32001B2D042D1C2D0800F90079080319222DE5
:102A4200232D3E2D02307902031C282D292D2B2DFA
:102A52003E2D3E2D0730F8007808F00079089431B9
:102A62006F249531063EC03E8600013087008114F6
:102A720079089531CC2595313E2D0800F500750871
:102A82000319442D452D602D02307502031C4A2D79
:102A92004B2D4D2D602D602D0730F4007408F00091
:102AA200750894316F249531063EC03E8600013090
:102AB2008700011475089431DF249531602D0800D8
:102AC200F401F501642D701C672D682D6C2D7208C0
:102AD200F4077308F53D0130F235F30D890B6D2DC6
:102AE2000130F136F00C890B722D70087104031D50
:102AF2007B2D7C2D642D7D2D7508F1007408F0006E
:102B0200822D08002100AA01AB01872D261C8A2DE7
:102B12008B2D8F2D2808AA072908AB3D0130A83537
:102B2200A90D890B902D0130A736A60C890B952D86
:102B320026082704031D9E2D9F2D872DA02D2B08CF
:102B4200A7002A08A600A52D08002100AC00073026
:102B5200AB002B08A6002C08943188249531C03E86
:102B620086000130870021002A0884000130850098
:102B7200403F803F413F813F2C35AB000130AB35B8
:102B8200FF3E031DC02D2B35013E203E86008701EE
:102B92000108CB2D0800F7000730F4007408F0009C
:102BA200770894316F249531053EC03E860001308E
:102BB20087000108F5007735F6000130F635FF3E53
:102BC200031DDF2D7635053E203E86008701750800
:102BD20081008430F4007735F5000130F535FF3E91
:102BE200031DEF2D7535043E203E860087017408D3
:102BF2008100FB2D080000309331E0239531003A2B
:102C0200031D042E052E322E2300D219092E0B2E5F
:102C120001300C2E0030F8007808F9002000A401E1
:102C220079080319152E162E222E172E7608F80073
:102C32007808A500C830F8007808A4002C2E2C2EA5
:102C4200222E7608F8007808A5008830F800780867
:102C5200A4002C2E2C2E0830F80078082300D2066F
:102C6200322E0800F3007308031D382E392E472E2A
:102C7200700886008701A730C03F9030C13F043002
:102C8200F0000030F100822E822E7D2E7303031D90
:102C92004B2E4C2E5A2E7008860087017D30C03F85
:102CA2009030C13F1830F0000030F100822E822EA9
:102CB2007D2E02307306031D5F2E602E6E2E70086D
:102CC200860087014130C03F9030C13F2030F00084
:102CD2000030F100822E822E7D2E03307306031DFA
:102CE200732E742E7D2EFF30F000FF30F100822E05
:102CF200822E7D2E7D2E7D2EFF30F000FF30F100E2
:102D0200822E08007708FB007608FA0020307B024A
:102D1200003003197A02031C8F2E902E962E7B0808
:102D2200F7007A08F600D32ED32E7B082000B000DD
:102D32003008F8007A08B0003008F90079088039C4
:102D4200B000B1017808B200B301B235B30D30085A
:102D52003207B4003108333DB50034083504031D91
:102D6200B32EB52E0130B62E0030B600B7013608AC
:102D7200F0003708F1005030F2000030F3009531D6
:102D82006125963179087F3970072000B8007108F3
:102D92000318710AB9003808E03EF6001F30393DC9
:102DA200F700D32E080021002D08BB002C08BA0022
:102DB20020303B02003003193A02031CE12EE22EBE
:102DC200E82E3B08AD003A08AC00242F242F3B0824
:102DD200AE002E08B8003A08AE002E08B900390835
:102DE2008039AE00AF013808B000B101B035B10D85
:102DF2002E083007B2002F08313DB30032083304E9
:102E0200031D042F062F0130072F0030B400B50137
:102E12003408A6003508A7005030A8000030A900E9
:102E2200953183259631210039087F392607B6006E
:102E320027080318270AB7003608E03EAC001F3007
:102E4200373DAD00242F08003D0011109110292FAD
:102E5200920197018E151116111590119011901172
:102E62009011900192159216121412179830F000D8
:102E72000E30F1000030F200F3001030F4000030A8
:102E8200F5009431A22497313D00181698111815B7
:102E9200981418102000BF01BF0A02303F02031C21
:102EA200532F542F562F842F842F3F08983EBD0056
:102EB200BE010E30BE3D3D08C0003E08C1004008C4
:102EC20086004108870001164008860041088700F5
:102ED20081154008860041088700011540088600D8
:102EE20041088700811440088600410887000110CC
:102EF2000130BD003D08BF0702303F02031C822F94
:102F0200832F562F842F3D0096012100C401C80152
:102F12008B31772397319331A623973121001215F4
:102F220008003D0011109110962F920197018E1505
:102F32001116111590119011901190119001921586
:102F420092161214121798302100A6000E30A70014
:102F52000030A800A9001030AA000030AB00943164
:102F6200FE2497313D001816981118159814181060
:102F72002300D701D70A02305702031CC12FC22FE8
:102F8200C42FF22FF22F5708983ED500D6010E30EB
:102F9200D63D5508D8005608D90058088600590869
:102FA20087000116580886005908870081155808BD
:102FB20086005908870001155808860059088700BD
:102FC2008114580886005908870001100130D50085
:102FD2005508D70702305702031CF02FF12FC42FD8
:102FE200F22F3D0096012100C401C8018C319424C6
:0E2FF20097319331BA23973121001215080050
:020000040001F9
:04000E00E4CFCFD795
:00000001FF
